:020000040800F2
:1000000000C00020AD0A0008190A0008210A0008F3
:10001000290A0008310A0008390A00080000000017
:10002000000000000000000000000000410A00087D
:100030004F0A0008000000005D0A00086B0A000873
:10004000FD0A0008FD0A0008FD0A0008FD0A000874
:10005000FD0A0008FD0A0008FD0A0008FD0A000864
:10006000FD0A0008FD0A0008FD0A0008FD0A000854
:10007000FD0A0008FD0A0008FD0A0008FD0A000844
:10008000FD0A0008FD0A0008FD0A0008FD0A000834
:10009000FD0A0008FD0A0008FD0A0008FD0A000824
:1000A000FD0A0008FD0A0008FD0A0008FD0A000814
:1000B000FD0A00080000000000000000FD0A000822
:1000C000FD0A0008FD0A0008FD0A0008FD0A0008F4
:1000D000FD0A0008FD0A0008FD0A0008FD0A0008E4
:1000E000770A0008FD0A0008000000000000000078
:1000F0000000000000000000000000000000000000
:1001000000000000FD0A000800000000FD0A0008D1
:100110000000000000000000FD0A0008FD0A0008C1
:10012000FD0A0008FD0A0008FD0A0008FD0A000893
:10013000FD0A0008000000000000000000000000B0
:10014000FD0A0008FD0A0008FD0A00080000000082
:10015000FD0A0008FD0A0008FD0A0008FD0A000863
:10016000FD0A0008FD0A0008FD0A00080000000062
:10017000FD0A0008FD0A0008000000000000000061
:0C018000FD0A0008FD0A0008FD0A000846
:10018C0010B5054C237833B9044B13B10448AFF3C5
:10019C0000800123237010BD14000020000000001B
:1001AC007042000808B5034B1BB103490348AFF379
:1001BC00008008BD000000001800002070420008FC
:1001CC0080B584B002AF00F094FC00F0C7F900F0E9
:1001DC00AFFA00F06DFA00F007FA322000F0FEFCE6
:1001EC0001224FF400614FF0904002F0D5F900234A
:1001FC00019301230093002305223D21102000F0E0
:10020C0013FB00224FF400614FF0904002F0C4F950
:10021C00322000F0E3FC574B1B88FB8001220121AC
:10022C004FF0904002F0B8F9322000F0D7FC524861
:10023C0001F070F84FF4FA614F4801F001F90346F0
:10024C00002B1AD14C4801F08AF903464B4A136033
:10025C004A4B1B68002B0CD0FB8840F6B83202FBD3
:10026C0003F31A46454B1B68B2FBF3F3444A136085
:10027C0006E0434B00221A6002E0414B00221A6058
:10028C003D4801F0AAF8002201214FF0904002F005
:10029C0083F93B4B1B6840F68C22934206D9012212
:1002AC0080214FF0904002F077F978E0344B1B68D6
:1002BC0040F62822934205D901220121314802F04F
:1002CC006BF96CE02E4B1B6840F6C412934205D9B7
:1002DC00012202212B4802F05FF960E0284B1B68D9
:1002EC00B3F5166F05D901220421264802F054F902
:1002FC0055E0234B1B6840F6FC02934206D90122C1
:10030C004FF480611F4802F047F948E01C4B1B6812
:10031C0040F69802934206D901224FF40061194825
:10032C0002F03AF93BE0164B1B6840F6340293425C
:10033C0006D901224FF48051124802F02DF92EE01B
:10034C000F4B1B68B3F5FA6F06D901224FF400511D
:10035C000C4802F021F922E0094B1B6840F26C7248
:10036C00934211D901224FF48041064802F014F94E
:10037C0015E000BFAA75FF1F300000200000002010
:10038C00E8000020000400486A4B1B68B3F5E16FDD
:10039C0005D901224FF40041674802F0FDF8654B86
:1003AC001B68664AA2FB03239909654BA3FB012337
:1003BC00DA0813469B0013445B00CA1AD2B2614B95
:1003CC001A705C4B1B68604AA2FB032359095C4BF7
:1003DC00A3FB0123DA0813469B0013445B00CA1AE3
:1003EC00D2B25A4B1A70534B1B68554AA2FB0323CB
:1003FC00D908534BA3FB0123DA0813469B00134483
:10040C005B00CA1AD2B2524B1A704A4B19684C4B49
:10041C00A3FB0123DA0813469B0013445B00CA1AA2
:10042C00D2B24C4B1A70322000F0D8FB01224FF4A0
:10043C0000614FF0904002F0AFF8322000F0CEFB9C
:10044C00404B1B7843F03003DBB22E220192009319
:10045C00202373220C21002000F0E6F9322000F05A
:10046C00BDFB3A4B1B7843F03003DAB2384B1B78A8
:10047C0043F03003DBB256210191202100910D2174
:10048C00002000F0D1F94FF47A7000F0A7FB0022A5
:10049C0080214FF0904002F07FF800220121264885
:1004AC0002F07AF800220221234802F075F80022AB
:1004BC000421214802F070F800224FF480611E489C
:1004CC0002F06AF800224FF400611B4802F064F855
:1004DC0000224FF48051184802F05EF800224FF4CD
:1004EC000051154802F058F800224FF48041124890
:1004FC0002F052F800224FF400410F4802F04CF881
:10050C0000224FF400614FF0904002F045F800F0EB
:10051C0089FB012002F044FD00F094FB01224FF412
:10052C0000614FF0904002F037F80B4800F0D2F920
:10053C0074E600BFE800002000040048D34D6210B0
:10054C00CDCCCCCCEC0000201F85EB51ED00002075
:10055C00EE000020040000203000002080B596B092
:10056C0000AF07F1140344220021184603F04EFE9D
:10057C003B4600221A605A609A60DA601A614FF4A6
:10058C00007002F0B7FC0346002B01D000F078F9A4
:10059C0010237B610123FB6200233B6360237B639D
:1005AC000023FB6307F11403184602F025FD0346F4
:1005BC00002B01D000F064F90F233B6000237B601B
:1005CC000023BB600023FB6000233B613B46002102
:1005DC00184603F025F90346002B01D000F050F922
:1005EC0000BF5837BD4680BD80B586B000AF3B46D6
:1005FC0000221A605A609A60DA601A615A61294BBB
:10060C00294A1A60274B4FF480225A60254B00224E
:10061C009A60244B0022DA60224B00221A61214B93
:10062C0004225A611F4B00221A761E4B00225A7666
:10063C001C4B0122DA611B4B002283F82020194B42
:10064C0000229A62174B0022DA62164B002283F8C2
:10065C003020144B00225A63124B002283F83820AE
:10066C00104800F015FD0346002B01D000F008F9EE
:10067C000E4B3B6006237B600023BB607F23FB603B
:10068C0004233B6100237B613B461946054800F07F
:10069C0073FF0346002B01D000F0F2F800BF1837AF
:1006AC00BD4680BD300000200000045001000080D9
:1006BC0080B500AF1B4B1C4A1A601A4B1B4A5A6080
:1006CC00184B00229A60174B0122DA60154B00225E
:1006DC001A61144B00225A61124B00229A61114B81
:1006EC000022DA610F4B00221A620E4801F08FFFD4
:1006FC000346002B01D000F0C3F80021094802F09A
:10070C0053FB0346002B01D000F0BAF8002105483A
:10071C0002F095FB0346002B01D000F0B1F800BFAE
:10072C0080BD00BF9400002000540040140D100048
:10073C0080B588B000AF07F10C0300221A605A6034
:10074C009A60DA601A61354BDB6C344A43F004036F
:10075C00D364324BDB6C03F00403BB60BB682F4BE0
:10076C00DB6C2E4A43F00103D3642C4BDB6C03F09F
:10077C0001037B607B68294BDB6C284A43F0020346
:10078C00D364264BDB6C03F002033B603B68002216
:10079C0040F681114FF0904001F0FEFE00224FF622
:1007AC0007411F4801F0F8FE4FF40053FB604FF473
:1007BC0004133B6100237B6107F10C0319461948B4
:1007CC0001F070FD40F68113FB6001233B610023B7
:1007DC007B610023BB6107F10C0319464FF090407D
:1007EC0001F060FD4FF60743FB6001233B610023E2
:1007FC007B610023BB6107F10C031946084801F02B
:10080C0051FD00220021282001F015FD282001F0C7
:10081C002EFD00BF2037BD4680BD00BF001002403A
:10082C00000400480008004890B587B002AF0446A9
:10083C00084611461A462346FB710346BB710B460C
:10084C007B7113463B71FB793B72BB797B727B7975
:10085C00BB723B79FB7297F820303B7397F82430CE
:10086C007B7307F10802022300930623A821034897
:10087C0001F068FF00BF1437BD4690BD9400002006
:10088C0080B400AF72B600BF00BFFDE780B483B088
:10089C0000AF0F4B1B6E0E4A43F0010313660C4B5B
:1008AC001B6E03F001037B607B68094B9B6D084A50
:1008BC0043F080539365064B9B6D03F080533B6074
:1008CC003B6800BF0C37BD465DF8047B704700BF2A
:1008DC000010024080B59AB000AF786007F10C03AD
:1008EC005C220021184603F091FC7B681B68194AB6
:1008FC0093422AD14FF48043FB604FF08053FB6549
:10090C0001233B6101237B611023BB610723FB6146
:10091C0002233B6202237B624FF08073BB6207F1C0
:10092C000C03184603F068F90346002B01D0FFF7BF
:10093C00A7FF094BDB6C084A43F40053D364064B06
:10094C00DB6C03F40053BB60BB6800BF6837BD466B
:10095C0080BD00BF000004500010024080B5A0B064
:10096C0000AF786007F16C0300221A605A609A603D
:10097C00DA601A6107F110035C220021184603F0BB
:10098C0045FC7B681B681F4A934237D140233B616F
:10099C0000233B6407F11003184603F02DF90346BE
:1009AC00002B01D0FFF76CFF174BDB6C164A43F0A2
:1009BC000103D364144BDB6C03F00103FB60FB6895
:1009CC004FF4C063FB6612233B6700237B67032352
:1009DC00BB670423FB6707F16C0319464FF090408B
:1009EC0001F060FC084B9B6D074A43F400139365C0
:1009FC00054B9B6D03F40013BB60BB6800BF8037D5
:100A0C00BD4680BD005400400010024080B400AFD1
:100A1C0000BFFDE780B400AF00BFFDE780B400AFBE
:100A2C0000BFFDE780B400AF00BFFDE780B400AFAE
:100A3C0000BFFDE780B400AF00BFBD465DF8047B8E
:100A4C00704780B400AF00BFBD465DF8047B7047B3
:100A5C0080B400AF00BFBD465DF8047B704780B525
:100A6C0000AF00F09BF800BF80BD80B500AF4FF425
:100A7C00005001F0A9FD00BF80BD000080B400AFA4
:100A8C00064BD3F88830054A43F47003C2F888301B
:100A9C0000BFBD465DF8047B704700BF00ED00E071
:100AAC00DFF834D0FFF7EAFF0C480D490D4A00235C
:100ABC0002E0D458C4500433C4188C42F9D30A4A07
:100ACC000A4C002301E013600432A242FBD303F072
:100ADC00A5FBFFF775FBFEE700C00020000000201F
:100AEC0014000020D042000814000020F400002064
:100AFC00FEE780B582B000AF0023FB71032001F04C
:100B0C008FFB0F2000F00EF80346002B02D00123C0
:100B1C00FB7101E0FFF7BAFEFB7918460837BD46BA
:100B2C0080BD000080B584B000AF78600023FB73FB
:100B3C00174B1B78002B23D0164B1A68144B1B78C1
:100B4C0019464FF47A73B3FBF1F3B2FBF3F3184687
:100B5C0001F09BFB0346002B0FD17B680F2B09D8B0
:100B6C00002279684FF0FF3001F065FB0A4A7B6880
:100B7C00136007E00123FB7304E00123FB7301E026
:100B8C000123FB73FB7B18461037BD4680BD00BFAD
:100B9C0010000020080000200C00002080B400AFE2
:100BAC00064B1B781A46064B1B681344044A136009
:100BBC0000BFBD465DF8047B704700BF10000020ED
:100BCC00F000002080B400AF034B1B681846BD46F4
:100BDC005DF8047B704700BFF000002080B584B046
:100BEC0000AF7860FFF7EEFFB8607B68FB60FB68D6
:100BFC00B3F1FF3F05D00A4B1B781A46FB68134430
:100C0C00FB6000BFFFF7DEFF0246BB68D31AFA6831
:100C1C009A42F7D800BF00BF1037BD4680BD00BF59
:100C2C001000002080B400AF054B1B68044A23F071
:100C3C000203136000BFBD465DF8047B704700BF24
:100C4C0010E000E080B400AF054B1B68044A43F091
:100C5C000203136000BFBD465DF8047B704700BF04
:100C6C0010E000E080B483B000AF786039607B683E
:100C7C009B6823F47C123B681A437B689A6000BF24
:100C8C000C37BD465DF8047B704780B483B000AF71
:100C9C00786039607B689B6823F0E0723B681A438C
:100CAC007B689A6000BF0C37BD465DF8047B7047CB
:100CBC0080B483B000AF78607B689B6803F0E0730E
:100CCC0018460C37BD465DF8047B704780B487B07E
:100CDC0000AFF860B9607A603B60FB6860331A461D
:100CEC00BB689B0013447B617B691A68084B1340FB
:100CFC007A6802F0F8413A680A43134343F0004221
:100D0C007B691A6000BF1C37BD465DF8047B7047D9
:100D1C0000F0FF0380B485B000AF786039607B6869
:100D2C0060331A463B689B001344FB60FB681B68EE
:100D3C0003F0F84318461437BD465DF8047B704742
:100D4C0080B487B000AFF860B9607A60FB6860333C
:100D5C001A46BB689B0013447B617B691B6823F0BC
:100D6C0000427B681A437B691A6000BF1C37BD4682
:100D7C005DF8047B704780B483B000AF78607B680B
:100D8C00DB6803F44063002B01D1012300E0002356
:100D9C0018460C37BD465DF8047B704780B487B0AD
:100DAC0000AFF860B9607A60FB6830331A46BB68F4
:100DBC001B0A9B0003F00C0313447B617B691A68CC
:100DCC00BB6803F01F031F2101FA03F3DB431A4036
:100DDC007B689B0E03F01F01BB6803F01F0301FA35
:100DEC0003F31A437B691A6000BF1C37BD465DF8DC
:100DFC00047B704780B487B000AFF860B9607A604C
:100E0C00FB6814331A46BB685B0E9B0003F00403AB
:100E1C0013447B617B691A68BB681B0D03F01F03CD
:100E2C00072101FA03F3DB431A40BB681B0D03F0E7
:100E3C001F03796801FA03F31A437B691A6000BF38
:100E4C001C37BD465DF8047B7047000080B485B04C
:100E5C0000AFF860B9607A60FB68D3F8B020BB686B
:100E6C00C3F31203DB431A407B6803F018030849F1
:100E7C00D940BB680B40C3F312031A43FB68C3F899
:100E8C00B02000BF1437BD465DF8047B704700BF2F
:100E9C00FFFF070080B483B000AF78607B689B686D
:100EAC0023F0204323F03F037A68936000BF0C3794
:100EBC00BD465DF8047B704780B483B000AF7860AA
:100ECC007B689B6803F00053B3F1005F01D10123F1
:100EDC0000E0002318460C37BD465DF8047B7047D4
:100EEC0080B483B000AF78607B689B6823F01043BC
:100EFC0023F03F0343F080527B689A6000BF0C37AD
:100F0C00BD465DF8047B704780B483B000AF786059
:100F1C007B689B6803F08053B3F1805F01D10123A0
:100F2C0000E0002318460C37BD465DF8047B704783
:100F3C0080B483B000AF78607B689B6823F000437B
:100F4C0023F03F0343F001027B689A6000BF0C372B
:100F5C00BD465DF8047B704780B483B000AF786009
:100F6C007B689B6823F0004323F03F0343F00202AD
:100F7C007B689A6000BF0C37BD465DF8047B7047F8
:100F8C0080B483B000AF78607B689B6803F001038A
:100F9C00012B01D1012300E0002318460C37BD467C
:100FAC005DF8047B704780B483B000AF78607B68D9
:100FBC009B6803F00203022B01D1012300E0002304
:100FCC0018460C37BD465DF8047B704780B483B07F
:100FDC0000AF78607B689B6823F0004323F03F03ED
:100FEC0043F004027B689A6000BF0C37BD465DF885
:100FFC00047B704780B483B000AF78607B689B68DB
:10100C0023F0004323F03F0343F010027B689A6007
:10101C0000BF0C37BD465DF8047B704780B483B0CD
:10102C0000AF78607B689B6803F00403042B01D14C
:10103C00012300E0002318460C37BD465DF8047B05
:10104C00704780B483B000AF78607B689B6823F0F6
:10105C00004323F03F0343F020027B689A6000BFFB
:10106C000C37BD465DF8047B704780B483B000AF8D
:10107C0078607B689B6803F00803082B01D101237F
:10108C0000E0002318460C37BD465DF8047B704722
:10109C0080B588B000AF78600023FB770023FB603D
:1010AC007B68002B01D1012326E17B681B69002B97
:1010BC007B685B6D002B09D17868FFF70BFC7B68B4
:1010CC0000229A657B68002283F850207B681B689D
:1010DC001846FFF7F1FE0346002B04D07B681B6813
:1010EC001846FFF7D7FE7B681B681846FFF70CFF06
:1010FC000346002B15D17B681B681846FFF7F0FEE2
:10110C007F4B1B689B097F4AA2FB03239B0901337E
:10111C005B00FB6002E0FB68013BFB60FB68002BA3
:10112C00F9D17B681B681846FFF7EEFE0346002BCF
:10113C000DD17B685B6D43F010027B685A657B6850
:10114C009B6D43F001027B689A650123FB777B68FA
:10115C001B681846FFF762FF78617B685B6D03F0D4
:10116C001003002B40F0BF807B69002B40F0BB804C
:10117C007B685B6D23F4817343F002027B685A65D4
:10118C007B681B681846FFF7FBFE0346002B0BD150
:10119C005D48FFF7F5FE0346002B05D17B685B68C5
:1011AC0019465A48FFF75EFD7B685B7E5A037B68E5
:1011BC005B6B1A437B68DB681A437B689B681A433A
:1011CC007B6893F820301B041343BB617B6893F856
:1011DC002030012B06D17B685B6A013B5B04BA694A
:1011EC001343BB617B689B6A002B09D07B689B6AAD
:1011FC0003F470727B68DB6A1343BA691343BB61F7
:10120C007B681B68DA68424B13407A681268B969CC
:10121C000B43D3607B681B681846FFF726FF3861C9
:10122C007B69002B3DD13B69002B3AD17B681B7E3F
:10123C009A037B6893F830305B001343BB617B6887
:10124C001B68DB6823F4804323F002037A6812687E
:10125C00B9690B43D3607B6893F83830012B18D1F4
:10126C007B681B681B6923F4FF6323F004037A6813
:10127C00D16B7A68126C11437A68526C11437A689C
:10128C00926C0A431A437B681B6842F001021A6194
:10129C0007E07B681B681A697B681B6822F00102F7
:1012AC001A617B681B69012B0CD17B681B681B6B5B
:1012BC0023F00F017B68DB695A1E7B681B680A43AD
:1012CC001A6307E07B681B681A6B7B681B6822F04B
:1012DC000F021A637B685B6D23F0030343F001027A
:1012EC007B685A6507E07B685B6D43F010027B6896
:1012FC005A650123FB77FB7F18462037BD4680BD1E
:10130C0008000020632D3E0500000450000304502B
:10131C0007C0F0FF80B584B000AF78607B681B68B5
:10132C001846FFF77BFE0346002B4FD17B6893F8E2
:10133C005030012B01D102234BE07B68012283F852
:10134C005020786800F0B6FD0346FB73FB7B002B46
:10135C0037D17B685B6D23F4706323F0010343F496
:10136C0080727B685A657B685B6D03F48053B3F5C0
:10137C00805F06D17B689B6D23F006027B689A65C3
:10138C0002E07B6800229A657B681B681C221A604D
:10139C007B68002283F850207B681B68DB6803F0B5
:1013AC000073002B07D07B685B6D23F4405343F430
:1013BC0080527B685A657B681B681846FFF706FEEF
:1013CC0006E07B68002283F8502001E00223FB73C7
:1013DC00FB7B18461037BD4680BD80B584B000AF8E
:1013EC0078607B6893F85030012B01D1022323E005
:1013FC007B68012283F850200321786800F09EFC62
:10140C000346FB73FB7B002B11D1786800F0D8FDF1
:10141C000346FB73FB7B002B09D17B685B6D23F4CC
:10142C00885323F0010343F001027B685A657B6803
:10143C00002283F85020FB7B18461037BD4680BD38
:10144C0080B586B000AF786039607B685B69082B2B
:10145C0002D108237B6110E07B681B68DB6803F01A
:10146C000103002B07D07B685B6D43F020027B6887
:10147C005A6501236FE004237B61FFF7A3FB3861FE
:10148C0021E03B68B3F1FF3F1DD0FFF79BFB024609
:10149C003B69D31A3A689A4202D33B68002B12D1AB
:1014AC007B681B681A687B691340002B0BD17B6827
:1014BC005B6D43F004027B685A657B68002283F8FD
:1014CC005020032347E07B681B681A687B69134034
:1014DC00002BD6D07B685B6D43F400727B685A6539
:1014EC007B681B681846FFF746FC0346002B1CD094
:1014FC007B685B7E002B18D17B681B681B6803F034
:10150C000803082B11D17B685B6D23F480727B6818
:10151C005A657B685B6D03F48053002B05D17B68A7
:10152C005B6D43F001027B685A657B681B68DB6866
:10153C00FB607B69082B04D17B681B6808221A604E
:10154C0008E0FB6803F48043002B03D17B681B6825
:10155C000C221A60002318461837BD4680BD80B493
:10156C0083B000AF78607B681B681B6C18460C3727
:10157C00BD465DF8047B704780B5B6B000AF7860AF
:10158C003960002387F8D7300023BB607B6893F861
:10159C005030012B01D10223BBE37B68012283F87D
:1015AC0050207B681B681846FFF738FD0346002B5C
:1015BC0040F0A0833B685B68C7F8D0303B685B6841
:1015CC00052B24D83B685B68023B032B1BD801A27C
:1015DC0052F823F0F1150008F9150008011600085F
:1015EC00091600080C23C7F8D03010E01223C7F8F6
:1015FC00D0300CE01823C7F8D03008E04FF48073DB
:10160C00C7F8D03003E00623C7F8D03000BF7B68A2
:10161C0018683B681B681A46D7F8D010FFF7BEFB5A
:10162C007B681B681846FFF7F9FCC7F8CC007B6891
:10163C001B681846FFF719FDC7F8C800D7F8CC305F
:10164C00002B40F0A481D7F8C830002B40F09F81CC
:10165C007B6818683B6819683B689B681A46FFF7FB
:10166C00C9FB3B685A697B681B68DB68DB0803F0C5
:10167C0003035B0002FA03F3C7F8C4303B681B6931
:10168C00042B0AD07B6818683B6819693B681A6898
:10169C00D7F8C430FFF71AFB79E17B681B6800218F
:1016AC001846FFF737FB0346C3F31203002B0AD18E
:1016BC007B681B6800211846FFF72CFB03469B0E2A
:1016CC0003F01F021EE07B681B6800211846FFF721
:1016DC0021FB0346C7F8B830D7F8B83093FAA3F318
:1016EC00C7F8B430D7F8B430C7F8BC30D7F8BC3032
:1016FC00002B01D1202304E0D7F8BC30B3FA83F3DC
:10170C00DBB21A463B681B68C3F31203002B05D1EE
:10171C003B681B689B0E03F01F0318E03B681B68BB
:10172C00C7F8AC30D7F8AC3093FAA3F3C7F8A830AD
:10173C00D7F8A830C7F8B030D7F8B030002B01D1AB
:10174C00202304E0D7F8B030B3FA83F3DBB29A422B
:10175C0006D17B681B68002200211846FFF7F0FABF
:10176C007B681B6801211846FFF7D4FA0346C3F3C4
:10177C001203002B0AD17B681B6801211846FFF766
:10178C00C9FA03469B0E03F01F021EE07B681B6820
:10179C0001211846FFF7BEFA0346C7F8A030D7F868
:1017AC00A03093FAA3F3C7F89C30D7F89C30C7F855
:1017BC00A430D7F8A430002B01D1202304E0D7F8B3
:1017CC00A430B3FA83F3DBB21A463B681B68C3F34D
:1017DC001203002B05D13B681B689B0E03F01F0303
:1017EC0018E03B681B68C7F89430D7F8943093FA2C
:1017FC00A3F3C7F89030D7F89030C7F89830D7F8E3
:10180C009830002B01D1202304E0D7F89830B3FA9C
:10181C0083F3DBB29A4206D17B681B68002201215C
:10182C001846FFF78DFA7B681B6802211846FFF7F4
:10183C0071FA0346C3F31203002B0AD17B681B68B1
:10184C0002211846FFF766FA03469B0E03F01F02AF
:10185C001EE07B681B6802211846FFF75BFA034603
:10186C00C7F88830D7F8883093FAA3F3C7F88430D8
:10187C00D7F88430C7F88C30D7F88C30002B01D1D6
:10188C00202304E0D7F88C30B3FA83F3DBB21A468A
:10189C003B681B68C3F31203002B05D13B681B6824
:1018AC009B0E03F01F0314E03B681B68FB67FB6F88
:1018BC0093FAA3F3BB67BB6FC7F88030D7F88030BF
:1018CC00002B01D1202304E0D7F88030B3FA83F346
:1018DC00DBB29A4206D17B681B68002202211846B3
:1018EC00FFF72EFA7B681B6803211846FFF712FAE4
:1018FC000346C3F31203002B0AD17B681B68032138
:10190C001846FFF707FA03469B0E03F01F0217E079
:10191C007B681B6803211846FFF7FCF903463B67FD
:10192C003B6F93FAA3F3FB66FB6E7B677B6F002B1D
:10193C0001D1202303E07B6FB3FA83F3DBB21A46A9
:10194C003B681B68C3F31203002B05D13B681B6873
:10195C009B0E03F01F0311E03B681B687B667B6EDC
:10196C0093FAA3F33B663B6EBB66BB6E002B01D1B7
:10197C00202303E0BB6EB3FA83F3DBB29A4206D1A9
:10198C007B681B68002203211846FFF7D9F97B6896
:10199C001B681846FFF7F4FA0346002B40F0408111
:1019AC007B6818683B6819683B68DB681A46FFF768
:1019BC004DFA3B68DB688F4A934240F031817B687B
:1019CC0018683B681B68C3F31203002B0BD13B68F0
:1019DC001B689B0E013303F01F03092B94BF0123DB
:1019EC000023DBB219E03B681B68BB65BB6D93FA47
:1019FC00A3F37B657B6DFB65FB6D002B01D1202375
:101A0C0003E0FB6DB3FA83F3DBB2013303F01F0386
:101A1C00092B94BF01230023DBB2002B79D03B6848
:101A2C001B68C3F31203002B07D13B681B689B0E8A
:101A3C0001339B0603F0F84215E03B681B68FB641E
:101A4C00FB6C93FAA3F3BB64BB6C3B653B6D002B47
:101A5C0001D1202303E03B6DB3FA83F3DBB20133F6
:101A6C009B0603F0F8423B681B68C3F31203002B80
:101A7C0009D13B681B689B0E013303F01F03012146
:101A8C0001FA03F317E03B681B683B643B6C93FA69
:101A9C00A3F3FB63FB6B7B647B6C002B01D12023DA
:101AAC0003E07B6CB3FA83F3DBB2013303F01F0367
:101ABC00012101FA03F342EA03013B681B68C3F3FB
:101ACC001203002B0AD13B681B689B0E013303F0F9
:101ADC001F0213465B0013441B0518E03B681B6890
:101AEC007B637B6B93FAA3F33B633B6BBB63BB6B7B
:101AFC00002B01D1202303E0BB6BB3FA83F3DBB2E1
:101B0C00013303F01F0213465B0013441B050B4308
:101B1C0081E03B681B68C3F31203002B07D13B68C1
:101B2C001B689B0E01339B0603F0F84215E03B68E3
:101B3C001B68BB62BB6A93FAA3F37B627B6AFB6292
:101B4C00FB6A002B01D1202303E0FB6AB3FA83F379
:101B5C00DBB201339B0603F0F8423B681B68C3F30E
:101B6C001203002B09D13B681B689B0E013303F059
:101B7C001F03012101FA03F317E03B681B68FB61AB
:101B8C00FB6993FAA3F3BB61BB693B623B6A002B15
:101B9C0001D1202303E03B6AB3FA83F3DBB20133B8
:101BAC0003F01F03012101FA03F342EA03013B682E
:101BBC001B68C3F31203002B0DD13B681B689B0EF3
:101BCC00013303F01F0213465B0013441E3B1B053D
:101BDC0043F000731EE03B681B683B613B6993FA62
:101BEC00A3F3FB60FB687B617B69002B04D1202392
:101BFC0006E000BF00007F407B69B3FA83F3DBB2E1
:101C0C00013303F01F0213465B0013441E3B1B05FC
:101C1C0043F000730B433A6892681946FFF7EAF8F1
:101C2C003B681A683D4B1340002B6CD03C48FFF7C7
:101C3C003FF8C7F8C0003B681B683A4A934227D16B
:101C4C00D7F8C03003F40003002B21D17B681B684C
:101C5C00354A934257D1D7F8C03043F400031946A4
:101C6C002F48FFF712F8314B1B689B09304AA2FB37
:101C7C0003239B095A1C13465B0013449B00BB6057
:101C8C0002E0BB68013BBB60BB68002BF9D13AE0BA
:101C9C003B681B68274A934213D1D7F8C03003F036
:101CAC008073002B0DD17B681B681F4A93422AD18D
:101CBC00D7F8C03043F0807319461948FEF7E5FF9A
:101CCC0021E03B681B681C4A93421CD1D7F8C030FA
:101CDC0003F48003002B16D17B681B68124A9342D5
:101CEC0011D1D7F8C03043F4800319460C48FEF7E5
:101CFC00CCFF08E07B685B6D43F020027B685A6583
:101D0C00012387F8D7307B68002283F8502097F89E
:101D1C00D7301846D837BD4680BD00BF00000880BC
:101D2C0000030450000052C70000045008000020BB
:101D3C00632D3E05000084CB0100008080B588B087
:101D4C0000AF786039600023FB613B68BB617B6846
:101D5C001B681846FFF762F938617B681B681846E8
:101D6C00FFF783F9F8603B69002B03D1FB68002B6C
:101D7C0000F098807B681B68DB6803F00073002B15
:101D8C002AD07B685B7E012B26D17B681B7E012BC6
:101D9C0022D10123BB6114E0FB69454A93420DD962
:101DAC007B685B6D43F010027B685A657B689B6DAA
:101DBC0043F001027B689A65012374E0FB690133EF
:101DCC00FB617B681B681B6803F04003402BE3D16D
:101DDC007B681B6840221A60BB69022B14D07B689D
:101DEC001B681846FFF71AF90346002B0CD07B68CA
:101DFC001B681846FFF7D7F80346002B04D17B6805
:101E0C001B681846FFF7F6F8BB69012B14D07B68EA
:101E1C001B681846FFF729F90346002B0CD07B688A
:101E2C001B681846FFF7BFF80346002B04D17B68EC
:101E3C001B681846FFF705F9BB69022B05D0BB6977
:101E4C00032B05D10C237B6105E008237B6102E0A9
:101E5C0004237B6100BFFEF7B5FEB8601BE0FEF704
:101E6C00B1FE0246BB68D31A052B14D97B681B68DC
:101E7C009A687B691340002B0DD07B685B6D43F037
:101E8C0010027B685A657B689B6D43F001027B688E
:101E9C009A65012307E07B681B689A687B6913408D
:101EAC00002BDCD1002318462037BD4680BD00BF77
:101EBC00FFFF3FA380B584B000AF78600023BB6008
:101ECC007B681B681846FFF75BF80346002B69D14B
:101EDC007B681B689A68364B1340002B0DD07B68CF
:101EEC005B6D43F010027B685A657B689B6D43F019
:101EFC0001027B689A65012355E07B681B681846D4
:101F0C00FFF716F82B48FEF7D3FE034603F4000345
:101F1C00002B13D0284B1B689B09284AA2FB0323D8
:101F2C009B095A1C13465B0013449B00BB6002E0E8
:101F3C00BB68013BBB60BB68002BF9D1FEF742FECE
:101F4C00F86028E07B681B681846FFF719F8034611
:101F5C00002B04D17B681B681846FEF7E9FFFEF7DF
:101F6C0031FE0246FB68D31A022B14D97B681B681E
:101F7C001B6803F00103012B0DD07B685B6D43F0F4
:101F8C0010027B685A657B689B6D43F001027B688D
:101F9C009A65012307E07B681B681B6803F001034B
:101FAC00012BCFD1002318461037BD4680BD00BF92
:101FBC003F0000800003045008000020632D3E0504
:101FCC0080B584B000AF78607B681B681846FEF75C
:101FDC00EAFFF8607B681B681846FEF7D1FF0346E2
:101FEC00002B47D0FB68002B44D17B681B689B6897
:101FFC0003F00D03012B0CD17B681B681846FEF710
:10200C00ABFF7B681B6803221A60FEF7DBFDB86030
:10201C0029E07B685B6D43F010027B685A657B6836
:10202C009B6D43F001027B689A65012323E0FEF768
:10203C00C9FD0246BB68D31A022B14D97B681B68F6
:10204C009B6803F00103002B0DD07B685B6D43F0A4
:10205C0010027B685A657B689B6D43F001027B68BC
:10206C009A65012307E07B681B689B6803F00103FA
:10207C00002BDCD1002318461037BD4680BD000074
:10208C0080B485B000AF78607B6803F00703FB6019
:10209C000C4BDB68BB60BA684FF6FF031340BB60A8
:1020AC00FB681A02BB68134343F0BF6343F400336D
:1020BC00BB60044ABB68D36000BF1437BD465DF8F3
:1020CC00047B704700ED00E080B400AF044BDB688C
:1020DC001B0A03F007031846BD465DF8047B7047E6
:1020EC0000ED00E080B483B000AF0346FB7197F9BC
:1020FC000730002B0BDBFB7903F01F02074997F924
:10210C0007305B09012000FA02F241F8232000BFDE
:10211C000C37BD465DF8047B704700BF00E100E062
:10212C0080B483B000AF03463960FB7197F9073078
:10213C00002B0ADB3B68DAB20C4997F90730120125
:10214C00D2B20B4483F800230AE03B68DAB20849A8
:10215C00FB7903F00F03043B1201D2B20B441A7645
:10216C0000BF0C37BD465DF8047B704700E100E012
:10217C0000ED00E080B489B000AFF860B9607A601F
:10218C00FB6803F00703FB61FB69C3F10703042B36
:10219C0028BF0423BB61FB690433062B02D9FB69FE
:1021AC00033B00E000237B614FF0FF32BB6902FA76
:1021BC0003F3DA43BB681A407B699A404FF0FF3156
:1021CC007B6901FA03F3D9437B680B401343184630
:1021DC002437BD465DF8047B7047000080B582B0A3
:1021EC0000AF78607B68013BB3F1807F01D30123A2
:1021FC000FE00A4A7B68013B53600F214FF0FF3020
:10220C00FFF78EFF054B00229A60044B07221A60E1
:10221C00002318460837BD4680BD00BF10E000E023
:10222C0080B582B000AF78607868FFF729FF00BFF7
:10223C000837BD4680BD80B586B000AF0346B96097
:10224C007A60FB7300237B61FFF73EFF78617A684D
:10225C00B9687869FFF78EFF024697F90F3011467F
:10226C001846FFF75DFF00BF1837BD4680BD80B52F
:10227C0082B000AF0346FB7197F907301846FFF7A1
:10228C0031FF00BF0837BD4680BD80B582B000AFBE
:10229C0078607868FFF7A2FF034618460837BD46FA
:1022AC0080BD000080B487B000AF78603960002337
:1022BC007B6154E13B681A6801217B6901FA03F3E5
:1022CC001340FB60FB68002B00F046813B685B68A9
:1022DC0003F00303012B05D03B685B6803F0030399
:1022EC00022B30D17B689B683B617B695B000322CE
:1022FC0002FA03F3DB433A6913403B613B68DA684B
:10230C007B695B0002FA03F33A6913433B617B6818
:10231C003A699A607B685B683B6101227B6902FACF
:10232C0003F3DB433A6913403B613B685B681B0971
:10233C0003F001027B6902FA03F33A6913433B6130
:10234C007B683A695A603B685B6803F00303032BB4
:10235C0017D07B68DB683B617B695B00032202FA68
:10236C0003F3DB433A6913403B613B689A687B6932
:10237C005B0002FA03F33A6913433B617B683A69E9
:10238C00DA603B685B6803F00303022B23D17B69A3
:10239C00DA087B68083253F822303B617B6903F022
:1023AC0007039B000F2202FA03F3DB433A69134045
:1023BC003B613B681A697B6903F007039B0002FAD7
:1023CC0003F33A6913433B617B69DA087B68083293
:1023DC00396943F822107B681B683B617B695B00A1
:1023EC00032202FA03F3DB433A6913403B613B6877
:1023FC005B6803F003027B695B0002FA03F33A6942
:10240C0013433B617B683A691A603B685B6803F471
:10241C004033002B00F0A080584B1B6E574A43F002
:10242C0001031366554B1B6E03F00103BB60BB68C5
:10243C00534A7B699B08023352F823303B617B691A
:10244C0003F003039B000F2202FA03F3DB433A6908
:10245C0013403B617B68B3F1904F19D07B68494ABC
:10246C00934213D07B68484A93420DD07B68474A0D
:10247C00934207D07B68464A934201D1042308E07B
:10248C00072306E0032304E0022302E0012300E01B
:10249C0000237A6902F00302920093403A691343D5
:1024AC003B6137497B699B0802333A6941F8232029
:1024BC00384B9B683B61FB68DB433A6913403B61DB
:1024CC003B685B6803F48013002B03D03A69FB680C
:1024DC0013433B612F4A3B6993602E4BDB683B6196
:1024EC00FB68DB433A6913403B613B685B6803F470
:1024FC000013002B03D03A69FB6813433B61254A58
:10250C003B69D360234B5B683B61FB68DB433A69F7
:10251C0013403B613B685B6803F40033002B03D032
:10252C003A69FB6813433B611A4A3B695360194B88
:10253C001B683B61FB68DB433A6913403B613B68BA
:10254C005B6803F48033002B03D03A69FB681343B8
:10255C003B61104A3B6913607B6901337B613B68CB
:10256C001A687B6922FA03F3002B7FF4A3AE00BF39
:10257C0000BF1C37BD465DF8047B7047001002405D
:10258C00000001400004004800080048000C00480E
:10259C00001000480004014080B483B000AF7860A4
:1025AC000B467B8013467B707B78002B03D07A889C
:1025BC007B689A6102E07A887B689A6200BF0C376C
:1025CC00BD465DF8047B704780B582B000AF034612
:1025DC00FB80084B5A69FB881340002B06D0054A38
:1025EC00FB885361FB88184600F006F800BF0837DB
:1025FC00BD4680BD0004014080B483B000AF0346EB
:10260C00FB8000BF0C37BD465DF8047B704780B57E
:10261C0082B000AF78607B68002B01D101238DE084
:10262C007B6893F84130DBB2002B06D17B6800222B
:10263C0083F840207868FEF791F97B68242283F8B0
:10264C0041207B681B681A687B681B6822F00102BA
:10265C001A607B685A687B681B6822F070621A618A
:10266C007B681B689A687B681B6822F400429A603E
:10267C007B68DB68012B07D17B689A687B681B68D9
:10268C0042F400429A6006E07B689A687B681B689B
:10269C0042F404429A607B68DB68022B08D17B68A9
:1026AC001B685A687B681B6842F400625A6007E03A
:1026BC007B681B685A687B681B6822F400625A604E
:1026CC007B681B685B687A68126843F0007343F49C
:1026DC00004353607B681B68DA687B681B6822F4D4
:1026EC000042DA607B681A697B685B6942EA030125
:1026FC007B689B691A027B681B680A43DA607B68FB
:10270C00D9697B681A6A7B681B680A431A607B6804
:10271C001B681A687B681B6842F001021A607B68B0
:10272C0000225A647B68202283F841207B680022B7
:10273C001A637B68002283F842200023184608376E
:10274C00BD4680BD80B588B002AFF8607A601A468D
:10275C000B467B8113463B81FB6893F84130DBB21F
:10276C00202B40F0FD80FB6893F84030012B01D109
:10277C000223F6E0FB68012283F84020FEF722FAE0
:10278C0038613B690093192301224FF40041F8682A
:10279C0000F014F90346002B01D00123E1E0FB68A3
:1027AC00212283F84120FB68102283F84220FB6829
:1027BC0000225A64FB687A685A62FB683A895A8527
:1027CC00FB6800225A63FB685B8D9BB2FF2B06D91A
:1027DC00FB68FF221A854FF080737B6107E0FB6872
:1027EC005B8D9AB2FB681A854FF000737B61FB68B6
:1027FC001B8D002B24D0FB685B6A1A78FB681B6866
:10280C009A62FB685B6A5A1CFB685A62FB685B8DB8
:10281C009BB2013B9AB2FB685A85FB681B8D013B4E
:10282C009AB2FB681A85FB681B8DDBB20133DAB2F6
:10283C0079894E4B00937B69F86800F083FA66E067
:10284C00FB681B8DDAB27989484B00937B69F86879
:10285C0000F078FA5BE03A69396AF86800F007F939
:10286C000346002B01D001237BE0FB685B6A1A78DE
:10287C00FB681B689A62FB685B6A5A1CFB685A62AD
:10288C00FB685B8D9BB2013B9AB2FB685A85FB6877
:10289C001B8D013B9AB2FB681A85FB685B8D9BB262
:1028AC00002B34D0FB681B8D002B30D13B6900937F
:1028BC003B6A00228021F86800F080F80346002B68
:1028CC0001D001234DE0FB685B8D9BB2FF2B0ED931
:1028DC00FB68FF221A85FB681B8DDAB2798900230D
:1028EC0000934FF08073F86800F02CFA0FE0FB684F
:1028FC005B8D9AB2FB681A85FB681B8DDAB27989FD
:10290C00002300934FF00073F86800F01BFAFB688B
:10291C005B8D9BB2002B9ED13A69396AF86800F046
:10292C00EDF80346002B01D001231AE0FB681B686D
:10293C002022DA61FB681B685968FB681A680C4B2B
:10294C000B405360FB68202283F84120FB68002277
:10295C0083F84220FB68002283F84020002300E02B
:10296C00022318461837BD4680BD00BF00200080EA
:10297C0000E800FE80B483B000AF78607B681B6811
:10298C009B6903F00203022B03D17B681B680022B6
:10299C009A627B681B689B6903F00103012B07D0CB
:1029AC007B681B689A697B681B6842F001029A611C
:1029BC0000BF0C37BD465DF8047B704780B584B012
:1029CC0000AFF860B9603B601346FB713BE0BA693D
:1029DC003968F86800F0D6F80346002B01D00123C3
:1029EC0041E03B68B3F1FF3F2DD0FEF7EBF8024618
:1029FC00BB69D31A3A689A4202D33B68002B22D1A6
:102A0C00FB681B689A69BB681340BA689A420CBF92
:102A1C0001230023DBB21A46FB799A4213D1FB68DF
:102A2C005B6C43F02002FB685A64FB68202283F83D
:102A3C004120FB68002283F84220FB68002283F8C7
:102A4C00402001230FE0FB681B689A69BB681340A8
:102A5C00BA689A420CBF01230023DBB21A46FB79F9
:102A6C009A42B4D0002318461037BD4680BD80B5BD
:102A7C0084B000AFF860B9607A6033E07A68B96806
:102A8C00F86800F07FF80346002B01D0012331E0F9
:102A9C00BB68B3F1FF3F25D0FEF794F802467B6884
:102AAC00D31ABA689A4202D3BB68002B1AD1FB68BE
:102ABC001B689B6903F00203022B13D0FB685B6C51
:102ACC0043F02002FB685A64FB68202283F8412003
:102ADC00FB68002283F84220FB68002283F8402028
:102AEC00012307E0FB681B689B6903F00203022BC0
:102AFC00C4D1002318461037BD4680BD80B584B0C4
:102B0C0000AFF860B9607A602FE07A68B968F8684D
:102B1C0000F038F80346002B01D001232DE0FEF71E
:102B2C0051F802467B68D31ABA689A4202D3BB6842
:102B3C00002B1AD1FB681B689B6903F02003202B28
:102B4C0013D0FB685B6C43F02002FB685A64FB6893
:102B5C00202283F84120FB68002283F84220FB6886
:102B6C00002283F84020012307E0FB681B689B6967
:102B7C0003F02003202BC8D1002318461037BD4684
:102B8C0080BD000080B58AB000AFF860B9607A6093
:102B9C00002387F82730FB681B689B69BB61002307
:102BAC003B627B68FB61BB6903F01003002B68D0B0
:102BBC00FB681B681022DA6149E0BB68B3F1FF3F88
:102BCC0045D0FDF7FFFF0246FB69D31ABA689A425B
:102BDC0002D3BB68002B3AD1FB681B685B6803F41B
:102BEC0080437B61FB6893F84230FB74FB681B6885
:102BFC009B6903F40043B3F5004F21D17B69B3F516
:102C0C00804F1DD0FB7C202B1AD0FB681B685A68A8
:102C1C00FB681B6842F480425A60FDF7D3FFF861F1
:102C2C000EE0FDF7CFFF0246FB69D31A192B07D92B
:102C3C003B6A43F020033B62012387F8273006E010
:102C4C00FB681B689B6903F02003202BE9D1FB6810
:102C5C001B689B6903F02003202B03D097F82730C7
:102C6C00002BAAD097F82730002B03D1FB681B68E8
:102C7C002022DA613B6A43F004033B62012387F8AC
:102C8C002730FB681B689B69BB61BB6903F48073CD
:102C9C00002B0BD03B6A43F001033B62FB681B68C3
:102CAC004FF48072DA61012387F82730BB6903F493
:102CBC008063002B0BD03B6A43F008033B62FB683C
:102CCC001B684FF48062DA61012387F82730BB69F7
:102CDC0003F40073002B0BD03B6A43F002033B62FE
:102CEC00FB681B684FF40072DA61012387F8273008
:102CFC0097F82730002B1CD0F868FFF73BFEFB68D9
:102D0C001B685968FB681A680D4B0B405360FB68D5
:102D1C005A6C3B6A1A43FB685A64FB68202283F89E
:102D2C004120FB68002283F84220FB68002283F8D4
:102D3C00402097F8273018462837BD4680BD00BF85
:102D4C0000E800FE80B487B000AFF8607B600B46F3
:102D5C007B8113467B727B89C3F309027B7A1B044C
:102D6C0003F47F031A437B681A433B6A134323F033
:102D7C0000437B61FB681B685A683B6A5B0D03F47C
:102D8C008061084B0B43DB4302EA0301FB681B68C1
:102D9C007A690A435A6000BF1C37BD465DF8047B54
:102DAC00704700BFFF63FF0380B483B000AF78604F
:102DBC0039607B6893F84130DBB2202B38D17B68CB
:102DCC0093F84030012B01D1022332E07B680122C1
:102DDC0083F840207B68242283F841207B681B68A1
:102DEC001A687B681B6822F001021A607B681B68FA
:102DFC001A687B681B6822F480521A607B681B6817
:102E0C0019687B681B683A680A431A607B681B6800
:102E1C001A687B681B6842F001021A607B682022EA
:102E2C0083F841207B68002283F84020002300E0D7
:102E3C00022318460C37BD465DF8047B704780B4FE
:102E4C0085B000AF786039607B6893F84130DBB2B5
:102E5C00202B39D17B6893F84030012B01D1022310
:102E6C0033E07B68012283F840207B68242283F8BE
:102E7C0041207B681B681A687B681B6822F0010282
:102E8C001A607B681B681B68FB60FB6823F470632B
:102E9C00FB603B681B02FA681343FB607B681B6892
:102EAC00FA681A607B681B681A687B681B6842F0BA
:102EBC0001021A607B68202283F841207B68002283
:102ECC0083F84020002300E0022318461437BD4647
:102EDC005DF8047B7047000080B400AF044B1B68A6
:102EEC0003F4C0631846BD465DF8047B704700BF11
:102EFC000070004080B485B000AF78607B68B3F59B
:102F0C00007F30D1234B1B6803F4C063B3F5007F03
:102F1C0038D0204B1B6823F4C0631E4A43F4007363
:102F2C0013601D4B1B68322202FB03F31B4AA2FBEE
:102F3C0003239B0C0133FB6002E0FB68013BFB604D
:102F4C00144B5B6903F48063B3F5806F02D1FB68AB
:102F5C00002BF2D10F4B5B6903F48063B3F5806FE8
:102F6C0010D103230FE00B4B1B6803F4C063B3F5C4
:102F7C00806F07D0074B1B6823F4C063054A43F4EA
:102F8C0080631360002318461437BD465DF8047B3C
:102F9C00704700BF007000400800002083DE1B4318
:102FAC0080B483B000AF0346FB71114B1B6823F058
:102FBC0007030F4A43F0020313600E4B1B690D4AC3
:102FCC0043F004031361FB79012B01D130BF02E004
:102FDC0040BF20BF20BF074B1B69064A23F00403E8
:102FEC00136100BF0C37BD465DF8047B704700BF12
:102FFC000070004000ED00E080B588B000AF786054
:10300C007B68002B02D1012300F002BC964B9B681D
:10301C0003F00C03BB61944BDB6803F003037B618F
:10302C007B681B6803F01003002B00F0E480BB6985
:10303C00002B07D0BB690C2B40F08B807B69012BDC
:10304C0040F08780884B1B6803F00203002B05D0EF
:10305C007B689B69002B01D10123D9E37B681A6A39
:10306C00814B1B6803F00803002B04D07E4B1B68BC
:10307C0003F0F00305E07C4BD3F894301B0903F00C
:10308C00F003934223D27B681B6A184600F054FD70
:10309C000346002B01D00123BAE3734B1B68724A21
:1030AC0043F008031360704B1B6823F0F0027B683D
:1030BC001B6A6D4913430B606B4B5B6823F47F42B7
:1030CC007B68DB691B02684913434B6025E0664B48
:1030DC001B68654A43F008031360634B1B6823F0BD
:1030EC00F0027B681B6A604913430B605E4B5B68A4
:1030FC0023F47F427B68DB691B025B4913434B6003
:10310C00BB69002B09D17B681B6A184600F014FDC3
:10311C000346002B01D001237AE300F081FC024628
:10312C00514B9B681B0903F00F035049CB5C03F018
:10313C001F0322FA03F34E4A13604E4B1B681846CA
:10314C00FDF7F0FC0346FB73FB7B002B52D0FB7BA3
:10315C005EE37B689B69002B32D0434B1B68424A71
:10316C0043F001031360FDF72DFD386108E0FDF716
:10317C0029FD02463B69D31A022B01D9032347E3ED
:10318C00394B1B6803F00203002BF0D0364B1B6845
:10319C00354A43F008031360334B1B6823F0F002ED
:1031AC007B681B6A304913430B602F4B5B6823F41D
:1031BC007F427B68DB691B022B4913434B601AE08F
:1031CC00294B1B68284A23F001031360FDF7FAFC16
:1031DC00386108E0FDF7F6FC02463B69D31A022B76
:1031EC0001D9032314E3204B1B6803F00203002BCB
:1031FC00F0D100E000BF7B681B6803F00103002BDB
:10320C0073D0BB69082B05D0BB690C2B0ED17B6925
:10321C00032B0BD1144B1B6803F40033002B63D02E
:10322C007B685B68002B5FD10123F1E27B685B68F4
:10323C00B3F5803F06D10C4B1B680B4A43F480332B
:10324C00136025E07B685B68B3F5A02F14D1064BA7
:10325C001B68054A43F480231360034B1B68024A26
:10326C0043F48033136013E00010024088420008DE
:10327C00080000200C000020A04B1B689F4A23F480
:10328C00803313609D4B1B689C4A23F4802313608E
:10329C007B685B68002B13D0FDF794FC386108E069
:1032AC00FDF790FC02463B69D31A642B01D903232A
:1032BC00AEE2924B1B6803F40033002BF0D014E009
:1032CC00FDF780FC386108E0FDF77CFC02463B69A9
:1032DC00D31A642B01D903239AE2884B1B6803F49D
:1032EC000033002BF0D100E000BF7B681B6803F0BB
:1032FC000203002B60D0BB69042B05D0BB690C2BDF
:10330C0019D17B69022B16D17C4B1B6803F48063AB
:10331C00002B05D07B68DB68002B01D1012377E201
:10332C00764B5B6823F0F8527B681B691B0673496C
:10333C0013434B6040E07B68DB68002B23D06F4B62
:10334C001B686E4A43F480731360FDF73BFC3861D5
:10335C0008E0FDF737FC02463B69D31A022B01D972
:10336C00032355E2654B1B6803F48063002BF0D0FC
:10337C00624B5B6823F0F8527B681B691B065F4944
:10338C0013434B6018E05D4B1B685C4A23F480735D
:10339C001360FDF717FC386108E0FDF713FC0246DB
:1033AC003B69D31A022B01D9032331E2534B1B681F
:1033BC0003F48063002BF0D17B681B6803F00803D7
:1033CC00002B3CD07B685B69002B1CD04B4BD3F89B
:1033DC0094304A4A43F00103C2F89430FDF7F2FBF3
:1033EC00386108E0FDF7EEFB02463B69D31A022B6D
:1033FC0001D903230CE2414BD3F8943003F00203C0
:10340C00002BEFD01BE03D4BD3F894303B4A23F01C
:10341C000103C2F89430FDF7D5FB386108E0FDF7E5
:10342C00D1FB02463B69D31A022B01D90323EFE1EE
:10343C00324BD3F8943003F00203002BEFD17B68AE
:10344C001B6803F00403002B00F0A6800023FB771D
:10345C002A4B9B6D03F08053002B0DD1274B9B6D9A
:10346C00264A43F080539365244B9B6D03F08053A5
:10347C00BB60BB680123FB77214B1B6803F4807393
:10348C00002B18D11E4B1B681D4A43F4807313602C
:10349C00FDF798FB386108E0FDF794FB02463B69A9
:1034AC00D31A022B01D90323B2E1154B1B6803F489
:1034BC008073002BF0D07B689B68012B08D10F4BDD
:1034CC00D3F890300D4A43F00103C2F8903029E054
:1034DC007B689B68052B15D1084BD3F89030074AB5
:1034EC0043F00403C2F89030044BD3F89030034AF5
:1034FC0043F00103C2F8903014E000BF001002400A
:10350C00007000409A4BD3F89030994A23F0010395
:10351C00C2F89030964BD3F89030954A23F00403C0
:10352C00C2F890307B689B68002B16D0FDF74AFBE5
:10353C0038610AE0FDF746FB02463B69D31A41F2BB
:10354C008832934201D9032362E1894BD3F890303E
:10355C0003F00203002BEDD015E0FDF733FB3861CF
:10356C000AE0FDF72FFB02463B69D31A41F2883281
:10357C00934201D903234BE17D4BD3F8903003F0F8
:10358C000203002BEDD1FB7F012B05D1784B9B6DFA
:10359C00774A23F0805393657B681B6803F0200304
:1035AC00002B3CD07B685B6A002B1CD0704BD3F893
:1035BC0098306F4A43F00103C2F89830FDF702FBD4
:1035CC00386108E0FDF7FEFA02463B69D31A022B7C
:1035DC0001D903231CE1664BD3F8983003F00203A6
:1035EC00002BEFD01BE0624BD3F89830604A23F0ED
:1035FC000103C2F89830FDF7E5FA386108E0FDF7F1
:10360C00E1FA02463B69D31A022B01D90323FFE0EE
:10361C00574BD3F8983003F00203002BEFD17B68A3
:10362C009B6A002B00F0F3807B689B6A022B40F0B6
:10363C00C9804F4BDB687B617B6903F003027B68BD
:10364C00DB6A9A422CD17B6903F070027B681B6B9E
:10365C00013B1B019A4223D17B6903F4FE427B6838
:10366C005B6B1B029A421BD17B6903F078427B682F
:10367C009B6BDB069A4213D17B6903F4C0027B6817
:10368C00DB6B5B08013B5B059A4209D17B6903F05C
:10369C00C0627B681B6C5B08013B5B069A426BD07B
:1036AC00BB690C2B62D0324B1B6803F08063002B80
:1036BC0001D00123ACE02E4B1B682D4A23F0807304
:1036CC001360FDF77FFA386108E0FDF77BFA0246DC
:1036DC003B69D31A022B01D9032399E0244B1B68B5
:1036EC0003F00073002BF0D1214BDA68214B13400F
:1036FC007A68D16A7A68126B013A120111437A68BE
:10370C00526B120211437A68D26B5208013A52057D
:10371C0011437A68126C5208013A520611437A68C6
:10372C00926BD2060A4312491343CB60104B1B68B1
:10373C000F4A43F0807313600D4BDB680C4A43F067
:10374C008073D360FDF73EFA386108E0FDF73AFA72
:10375C0002463B69D31A022B01D9032358E0044BD0
:10376C001B6803F00073002BF0D050E001234FE0F6
:10377C00001002408C809D01274B1B6803F00073E6
:10378C00002B44D1244B1B68234A43F080731360F5
:10379C00214BDB68204A43F08073D360FDF712FAAB
:1037AC00386108E0FDF70EFA02463B69D31A022B8A
:1037BC0001D903232CE0184B1B6803F00073002B7A
:1037CC00F0D024E0BB690C2B1FD0134B1B68124AA2
:1037DC0023F080731360FDF7F5F9386108E0FDF70D
:1037EC00F1F902463B69D31A022B01D903230FE0EE
:1037FC00094B1B6803F00073002BF0D1064BDA6801
:10380C000549064B1340CB6001E0012300E0002387
:10381C0018462037BD4680BD00100240FCFFEEFE6E
:10382C0080B584B000AF786039607B68002B01D123
:10383C000123E7E0754B1B6803F007033A689A42D3
:10384C0010D9724B1B6823F0070270493B68134375
:10385C000B606E4B1B6803F007033A689A4201D069
:10386C000123CFE07B681B6803F00203002B10D010
:10387C007B689A68664B9B6803F0F0039A4208D900
:10388C00634B9B6823F0F0027B689B686049134391
:10389C008B607B681B6803F00103002B4CD07B68AA
:1038AC005B68032B07D15A4B1B6803F00073002B8A
:1038BC0021D10123A6E07B685B68022B07D1544B16
:1038CC001B6803F40033002B15D101239AE07B68AD
:1038DC005B68002B07D14E4B1B6803F00203002BD7
:1038EC0009D101238EE04A4B1B6803F48063002B43
:1038FC0001D1012386E0464B9B6823F003027B68D1
:10390C005B68434913438B60FDF75CF9F8600AE090
:10391C00FDF758F90246FB68D31A41F288329342FC
:10392C0001D903236EE03A4B9B6803F00C027B68D1
:10393C005B689B009A42EBD17B681B6803F0020327
:10394C00002B10D07B689A68314B9B6803F0F00316
:10395C009A4208D22E4B9B6823F0F0027B689B683E
:10396C002B4913438B60294B1B6803F007033A6800
:10397C009A4210D2254B1B6823F0070223493B685F
:10398C0013430B60214B1B6803F007033A689A4200
:10399C0001D0012336E07B681B6803F00403002B85
:1039AC0008D01B4B9B6823F4E0627B68DB681849EA
:1039BC0013438B607B681B6803F00803002B09D052
:1039CC00134B9B6823F460527B681B69DB00104926
:1039DC0013438B6000F024F802460D4B9B681B09C7
:1039EC0003F00F030B49CB5C03F01F0322FA03F324
:1039FC00094A1360094B1B681846FDF793F80346F8
:103A0C00FB72FB7A18461037BD4680BD0020024081
:103A1C000010024088420008080000200C00002022
:103A2C0080B489B000AF0023FB610023BB613E4B27
:103A3C009B6803F00C033B613B4BDB6803F0030317
:103A4C00FB603B69002B05D03B690C2B21D1FB683B
:103A5C00012B1ED1344B1B6803F00803002B07D13C
:103A6C00314BD3F894301B0A03F00F03FB6105E0D4
:103A7C002D4B1B681B0903F00F03FB612B4AFB69E1
:103A8C0052F82330FB613B69002B0DD1FB69BB6104
:103A9C000AE03B69042B02D1254BBB6104E03B6976
:103AAC00082B01D1234BBB613B690C2B34D11E4B32
:103ABC00DB6803F00303BB60BB68022B03D0BB685D
:103ACC00032B03D005E01A4B7B6105E0194B7B619E
:103ADC0002E0FB697B6100BF134BDB681B0903F041
:103AEC00070301337B60104BDB681B0A03F07F0379
:103AFC007A6903FB02F27B68B2FBF3F37B610A4B3E
:103B0C00DB685B0E03F0030301335B003B607A69F7
:103B1C003B68B2FBF3F3BB61BB6918462437BD4667
:103B2C005DF8047B704700BF00100240984200080B
:103B3C000024F40000127A0080B586B000AF7860E3
:103B4C0000233B612A4B9B6D03F08053002B03D069
:103B5C00FFF7C2F9786114E0254B9B6D244A43F0C2
:103B6C0080539365224B9B6D03F08053FB60FB6885
:103B7C00FFF7B2F978611E4B9B6D1D4A23F0805301
:103B8C0093657B69B3F5007F0BD17B68802B19D9CA
:103B9C007B68A02B02D902233B6113E001233B611C
:103BAC0010E07B68802B02D903233B610AE07B6821
:103BBC00802B02D102233B6104E07B68702B01D186
:103BCC0001233B610B4B1B6823F0070209493B693E
:103BDC0013430B60074B1B6803F007033A699A42C7
:103BEC0001D0012300E0002318461837BD4680BDE4
:103BFC00001002400020024080B586B000AF786013
:103C0C000023FB740023BB747B681B6803F4006304
:103C1C00002B31D07B685B6CB3F5400F1AD0B3F539
:103C2C00400F14D8002B09D0B3F5000F0FD15D4B0A
:103C3C00DB685C4A43F48033D3600CE07B6804336C
:103C4C000021184600F0F0F90346FB7403E0012351
:103C5C00FB7400E000BFFB7C002B0BD1514BD3F865
:103C6C00883023F440027B685B6C4E491343C1F8E7
:103C7C00883001E0FB7CBB747B681B6803F4003369
:103C8C00002B00F09E8000237B74464B9B6D03F051
:103C9C008053002B01D1012300E00023002B0DD019
:103CAC00404B9B6D3F4A43F0805393653D4B9B6D5E
:103CBC0003F08053BB60BB6801237B743A4B1B68D9
:103CCC00394A43F480731360FCF77CFFF86009E019
:103CDC00FCF778FF0246FB68D31A022B02D90323A8
:103CEC00FB7405E0304B1B6803F48073002BEFD0A2
:103CFC00FB7C002B5AD12B4BD3F8903003F4407340
:103D0C007B617B69002B1ED07B689B6D7A699A4224
:103D1C0019D0244BD3F8903023F440737B61214BA2
:103D2C00D3F890301F4A43F48033C2F890301D4BC7
:103D3C00D3F890301B4A23F48033C2F89030194AE0
:103D4C007B69C2F890307B6903F00103002B16D01D
:103D5C00FCF738FFF8600BE0FCF734FF0246FB6819
:103D6C00D31A41F28832934202D90323FB7406E042
:103D7C000C4BD3F8903003F00203002BECD0FB7CFF
:103D8C00002B0BD1074BD3F8903023F440727B6897
:103D9C009B6D04491343C1F8903009E0FB7CBB7464
:103DAC0006E000BF0010024000700040FB7CBB74BA
:103DBC007B7C012B05D19B4B9B6D9A4A23F0805346
:103DCC0093657B681B6803F00103002B0AD0954BAD
:103DDC00D3F8883023F003027B681B6A91491343A4
:103DEC00C1F888307B681B6803F00203002B0AD0F3
:103DFC008C4BD3F8883023F00C027B685B6A8949C2
:103E0C001343C1F888307B681B6803F00403002B54
:103E1C000AD0844BD3F8883023F030027B689B6A3D
:103E2C0080491343C1F888307B681B6803F020037A
:103E3C00002B0AD07B4BD3F8883023F440627B688C
:103E4C00DB6A78491343C1F888307B681B6803F43C
:103E5C000073002B0AD0734BD3F8883023F4402224
:103E6C007B68DB6B6F491343C1F888307B681B6838
:103E7C0003F48063002B0AD06A4BD3F8883023F408
:103E8C0040127B681B6C67491343C1F888307B6810
:103E9C001B6803F04003002B0AD0624BD3F8883028
:103EAC0023F440527B681B6B5E491343C1F8883086
:103EBC007B681B6803F08003002B0AD0594BD3F8A6
:103ECC00883023F440427B685B6B56491343C1F83E
:103EDC0088307B681B6803F48073002B0AD0514B2D
:103EEC00D3F8883023F440327B689B6B4D491343E5
:103EFC00C1F888307B681B6803F40023002B28D0A2
:103F0C00484BD3F8883023F040627B689B6C454962
:103F1C001343C1F888307B689B6CB3F1006F06D1FA
:103F2C00404BDB683F4A43F48013D36011E07B685D
:103F3C009B6CB3F1806F0CD17B6804330121184664
:103F4C0000F072F80346FB74FB7C002B01D0FB7C69
:103F5C00BB747B681B6803F48023002B28D0314B87
:103F6C00D3F8883023F040627B68DB6C2D49134317
:103F7C00C1F888307B68DB6CB3F1006F06D1294B3C
:103F8C00DB68284A43F48013D36011E07B68DB6C58
:103F9C00B3F1806F0CD17B6804330121184600F01B
:103FAC0043F80346FB74FB7C002B01D0FB7CBB74F9
:103FBC007B681B6803F48043002B1CD0194BD3F88F
:103FCC00883023F040527B681B6D16491343C1F8AF
:103FDC0088307B681B6DB3F1805F0CD17B68043338
:103FEC000221184600F020F80346FB74FB7C002BE2
:103FFC0001D0FB7CBB747B681B6803F40043002B73
:10400C000AD0084BD3F8883023F080427B685B6D74
:10401C0004491343C1F88830BB7C18461837BD4699
:10402C0080BD00BF0010024080B584B000AF786046
:10403C0039600023FB73744BDB6803F00303002B24
:10404C0018D0714BDB6803F003027B681B689A4243
:10405C000DD17B681B68002B09D06B4BDB681B09EF
:10406C0003F007035A1C7B685B689A4247D0012314
:10407C00FB7344E07B681B68032B18D0032B25D8FB
:10408C00012B02D0022B09D020E05F4B1B6803F000
:10409C000203002B1DD10123FB731AE05A4B1B6842
:1040AC0003F48063002B16D10123FB7313E0564BF2
:1040BC001B6803F40033002B0FD1534B1B6803F424
:1040CC008023002B09D10123FB7306E00123FB7332
:1040DC0004E000BF02E000BF00E000BFFB7B002B50
:1040EC000DD1494BDB6823F073027B6819687B6840
:1040FC005B68013B1B010B4343491343CB60FB7BC8
:10410C00002B7CD1404B1B683F4A23F0806313602B
:10411C00FCF758FDB86009E0FCF754FD0246BB689B
:10412C00D31A022B02D90323FB7305E0364B1B6811
:10413C0003F00063002BEFD1FB7B002B5FD13B68BE
:10414C00002B10D1304B1B6923F0784323F4FE4332
:10415C007A68926811027A68D268D2060A432A49B0
:10416C0013430B6127E03B68012B12D1264B1B69D3
:10417C0023F4C00323F4FE437A68926811027A6830
:10418C0012695208013A52050A431F4913430B6145
:10419C0011E01D4B1B6923F0C06323F4FE437A68C6
:1041AC00926811027A6852695208013A52060A431F
:1041BC00154913430B61144B1B68134A43F080637E
:1041CC001360FCF7FFFCB86009E0FCF7FBFC02464F
:1041DC00BB68D31A022B02D90323FB7305E00A4BED
:1041EC001B6803F00063002BEFD0FB7B002B06D188
:1041FC00054B1A697B689B69034913430B61FB7B75
:10420C0018461037BD4680BD0010024002440346DC
:10421C00934200D1704703F8011BF9E770B50D4DBF
:10422C000D4C641BA4100026A64209D10B4D0C4C5E
:10423C0000F018F8641BA4100026A64205D170BD2E
:10424C0055F8043B98470136EEE755F8043B984780
:10425C000136F2E7C8420008C8420008C84200080C
:10426C00CC420008F8B500BFF8BC08BC9E467047AD
:0C427C00F8B500BFF8BC08BC9E467047B7
:1042880000000000000000000102030406070809FE
:10429800A0860100400D0300801A060000350C00BE
:1042A80040420F0080841E0000093D0000127A0081
:1042B8000024F40000366E010048E801006CDC02BE
:0442C800B101000838
:0442CC008D01000858
:1042D0000A0000000100000000093D00100000007D
:0442E00001000000D9
:0400000508000AAD38
:00000001FF
