:020000040800F2
:1000000000C0002095060008650600086706000885
:10001000690600086B0600086D0600080000000075
:100020000000000000000000000000006F06000853
:10003000710600080000000073060008750600083D
:10004000E5060008E5060008E5060008E5060008E4
:10005000E5060008E5060008E5060008E5060008D4
:10006000E5060008E5060008E5060008E5060008C4
:10007000E5060008E5060008E5060008E5060008B4
:10008000E5060008E5060008E5060008E5060008A4
:10009000E5060008E5060008E5060008E506000894
:1000A000E5060008E5060008E5060008E506000884
:1000B000E50600080000000000000000E50600085A
:1000C000E5060008E5060008E5060008E506000864
:1000D000E5060008E5060008E5060008E506000854
:1000E00079060008E5060008000000000000000096
:1000F0000000000000000000000000000000000000
:1001000000000000E506000800000000E506000809
:100110000000000000000000E5060008E5060008F9
:10012000E5060008E5060008E5060008E506000803
:10013000E5060008000000000000000000000000CC
:10014000E5060008E5060008E506000800000000D6
:10015000E5060008E5060008E5060008E5060008D3
:10016000E5060008E5060008E506000800000000B6
:10017000E5060008E5060008000000000000000099
:0C018000E5060008E5060008E50600089A
:10018C0010B5054C237833B9044B13B10448AFF3C5
:10019C0000800123237010BD14000020000000001B
:1001AC004C24000808B5034B1BB103490348AFF3BB
:1001BC00008008BD00000000180000204C2400083E
:1001CC0000B597B04422002105A802F00DF91422C5
:1001DC000021684602F008F94FF4007001F0EAFAC9
:1001EC0008B172B6FEE7102305930123CDE90B305D
:1001FC000F90602305A80D9301F0BEFB014608B1DA
:10020C0072B6FEE70F23CDE90030CDE90200049071
:10021C00684601F053FE08B172B6FEE717B05DF800
:10022C0004FB00001FB58DF80B309DF818308DF8CD
:10023C000C309DF81C308DF80D3002238DF8080021
:10024C008DF809108DF80A20009302AA0623A82124
:10025C00024801F0AFF905B05DF804FB380000204E
:10026C002DE9F0478CB000F05FFAFFF7A9FF9E4B29
:10027C009E4D4FF000629A600021142206A802F0F5
:10028C00B3F89B4B9B48DA6C42F00402DA64DA6CEC
:10029C0002F004020392039ADA6C42F00202DA646E
:1002AC00DA6C02F002020492049ADA6C42F0010257
:1002BC00DA64DB6C03F001030593002246F20101C2
:1002CC00059B00F0DDFF00224FF400614FF09040E1
:1002DC0000F0D6FF4FF404134FF400500024CDE986
:1002EC00060306A984480894012600F005FF46F28F
:1002FC000103804806A9CDE90636CDE908444FF440
:10030C00006700F0F9FE06A94FF09040CDE90676A3
:10031C00CDE9084400F0F0FE21462246282000F0EA
:10032C0097FE282000F0C6FEDFF8F4C1734B2C6258
:10033C002846C5E900C3C5E90246C5E90444C5E938
:10034C00064401F0E2F8014608B172B6FEE7284611
:10035C0001F0DCF9014608B172B6FEE7284601F05F
:10036C00FBF9054608B172B6FEE71822644C01464B
:10037C000DEB020002F038F8624925614FF480134E
:10038C004FF004082046C4E90013C4E90255C4E93F
:10039C000A55C4F814802583E66184F8205084F84B
:1003AC003050656384F8385000F016FA08B172B614
:1003BC00FEE7554A08900623CDE906230B907F23D0
:1003CC0006A92046CDE9093800F028FB054608B1FE
:1003DC0072B6FEE7322000F0C9F9394632464FF0CA
:1003EC00904000F04DFF2B46CDE9006505223D21E4
:1003FC001020FFF717FF2A4639464FF0904000F0C7
:10040C003FFF322000F0B2F9404B3A4DB3F8AA70DE
:10041C0040F6B8335F4301224FF48041284600F088
:10042C002FFF01221146284600F02AFF322000F04F
:10043C009DF9204600F066FD4FF4FA61204600F06D
:10044C0099FA00284DD1204600F0E4FA304B1860A0
:10045C00002846D0B7FBF0F02E4EDFF8C880306095
:10046C00204600F0C4FD28460022012100F008FFC0
:10047C003368294ADFF8B090DFF8B0A0274E8AF82D
:10048C000030190E11701A0C88F800201A0A89F81D
:10049C0000204FF4006101224FF0904000F0F0FE7C
:1004AC009AF80030019399F80030009398F80030D6
:1004BC003178CC220020FFF7B5FE337800220133CF
:1004CC004FF480412846337000F0DAFE00F062F9F8
:1004DC00012001F0A5F900F064F9204600F044F881
:1004EC0099E70020B8E700BF00ED00E038000020DD
:1004FC00001002400004004800080048140D1000D1
:10050C008C00002000000450010000800075FF1FCB
:10051C0004000020340000203200002033000020B2
:10052C00005400403100002030000020000000206A
:10053C00704772B6FEE700000A4B1A6E42F00102D9
:10054C001A661A6E82B002F001020092009A9A6D3D
:10055C0042F080529A659B6D03F080530193019B8E
:10056C0002B070470010024010B5044698B05C22EF
:10057C00002101A801F038FF2268144B9A4222D1C5
:10058C004FF4804301934FF08053159301231020B7
:10059C00CDE902330723CDE904030223CDE9063369
:1005AC0001A84FF08073089301F0B8FD08B1FFF774
:1005BC00C0FF074BDA6C42F40052DA64DB6C03F4D4
:1005CC0000530093009B18B010BD00BF00000450F6
:1005DC000010024010B59EB004461422002102A85F
:1005EC0001F002FF5C22002107A801F0FDFE226849
:1005FC00174B9A422AD1402307A8079301F08EFD8E
:10060C0008B1FFF796FF134CE36C43F00103E3646E
:10061C00E36C03F001030093009B4FF4C0621223C0
:10062C00CDE9022300210323CDE904134FF09040C0
:10063C00042302A9069300F05FFDA36D43F400139D
:10064C00A365A36D03F400130193019B1EB010BDB1
:10065C000054004000100240FEE7FEE7FEE7FEE714
:10066C00FEE770477047704700F06EB84FF40050CB
:10067C0000F00CBE034AD2F8883043F47003C2F881
:10068C008830704700ED00E0DFF834D0FFF7F2FF60
:10069C000C480D490D4A002302E0D458C4500433D1
:1006AC00C4188C42F9D30A4A0A4C002301E01360A7
:1006BC000432A242FBD301F09FFEFFF7D1FDFEE70F
:1006CC0000C000200000002014000020B42400080A
:1006DC0014000020F4000020FEE7000038B50F4B9A
:1006EC001A7805460AB9012038BD4FF47A73B3FB6A
:1006FC00F2F30B4A1068B0FBF3F000F0E9FC04468F
:10070C000028F0D10F2DEED8024629464FF0FF30CD
:10071C0000F09EFC034B20461D60E5E70C0000201A
:10072C00080000201000002010B5032000F07EFC13
:10073C000F20FFF7D3FF044618B9FFF7FDFE204644
:10074C0010BD0124FBE70000034A044B11681B7821
:10075C000B441360704700BFF00000200C00002019
:10076C00014B1868704700BFF000002038B50446F4
:10077C00FFF7F6FF631C1CBF054B1B78054618BF23
:10078C00E418FFF7EDFF431BA342FAD338BD00BFBB
:10079C000C0000204FF0E022136923F002031361D8
:1007AC0070474FF0E022136943F002031361704766
:1007BC0030B5CC0D04F004041430C1F304510359CA
:1007CC0007258D4023EA05038A401343035130BDAE
:1007DC008068C0F38000704737B50023019304464E
:1007EC00002800F0BB80456D25B9FFF7BDFEA5655F
:1007FC0084F8505023689A68900041BF9A6822F0A0
:10080C00204222F03F029A609A68D10040F1858024
:10081C009A68D20000F19880626D42F01002626515
:10082C00A26D42F00102A26501211846FFF7D0FF2C
:10083C00626D02F01002024340F08C80626D22F473
:10084C00817242F0020262659A68D5070AD4444A62
:10085C009268D00706D443486568826822F47C12FB
:10086C002A438260E568626B94F820002A43A568ED
:10087C002A43657E012842EA453242EA004202BF21
:10088C00606A00F1FF3042EA4042A06A20B1E56A9A
:10089C0000F4707028430243DD683348284010434D
:1008AC00D8609A68120720D4D86894F83020257E36
:1008BC00520020F4804042EA853220F002000243CC
:1008CC00DA6094F83820012A40D1D4E90F25186950
:1008DC0020F4FF6020F004002A430243606C0243C2
:1008EC00A06C024342F001021A612269012A05BF81
:1008FC00186BE2691A6B02F1FF3206BF20F00F0091
:10090C00024322F00F021A63636D23F0030343F0DA
:10091C0001036365084603B030BD9A68134922F0A1
:10092C00104222F03F0242F080529A60104A126844
:10093C00B2FBF1F2013252000192019A002A3FF40B
:10094C0067AF019A013AF7E700216EE71A6922F0C6
:10095C000102C9E7636D43F0100363650121D9E718
:10096C00000004500003045007C0F0FF400D0300CA
:10097C0008000020F8B54569082D04460E460AD03B
:10098C000368DB68D90705D5436D43F02003436545
:10099C000120F8BD0425FFF7E3FE074623681A681B
:1009AC002A421DD0626D42F400726265DA6812F45C
:1009BC00406F0FD1627E6AB91A6810070AD5626D52
:1009CC0022F480726265626DD1045EBF626D42F08A
:1009DC0001026265082DDA6817D11D600020D8E786
:1009EC00721CDCD0FFF7BCFEC01BB04201D8002E3D
:1009FC00D4D123681B682B40D0D1626D84F8503061
:100A0C0042F0040262650320C3E75204E6D40C22D0
:100A1C001A60E3E70368186C70470000F7B5002311
:100A2C00019390F85030012B05460E4600F0A6813C
:100A3C000468012380F850302046FFF7C9FE0028D7
:100A4C0040F096814B68052B06D8023B032B9ABFCE
:100A5C00B34A32F8133006239909326801F00C01BD
:100A6C0004F1300703F01F0378584FF01F0CC2F34A
:100A7C0084629A400CFA03F320EA03031A437A5077
:100A8C002046FFF7A5FEA36803F00803034320D11B
:100A9C00B26831682046FFF78BFE30697769E168F0
:100AAC003368042804F1600256D052F820E0DFF8D5
:100ABC0098C2C1F3C10103F0F8430EEA0C0C4900D3
:100ACC0043EA0C0307FA01F10B4343F0004342F8ED
:100ADC002030A2683368D70733D4F768914AD4F82A
:100AEC00B01007F0180CC3F3120022FA0CF21A40E3
:100AFC0021EA00010A43C4F8B0208B4A974220D166
:100B0C00002840F088809A0E013202F01F07092F4E
:100B1C004FF001014FEA826200F29D8002F0F84230
:100B2C00B9401143002840F091809B0E013303F033
:100B3C001F0303EB43031B05B26819432046FFF761
:100B4C0037FE3168794B194240F0B3800020002306
:100B5C0085F8503003B0F0BD216E216EC3F3120046
:100B6C00C1F38461002839D1C3F38463994202BF75
:100B7C00236E23F000432366536833685168C3F334
:100B8C001200C1F3846100282FD1C3F3846399420E
:100B9C0002BF536823F00043536093683368916835
:100BAC00C3F31200C1F3846130BBC3F38463994275
:100BBC0002BF936823F000439360D3683368D16815
:100BCC00C3F31200C1F38461E8B9C3F3846399429F
:100BDC0002BFD36823F00043D3607AE793FAA3F300
:100BEC00002BC9D0B3FA83F3C0E793FAA3F3002B1D
:100BFC00D3D0B3FA83F3CAE793FAA3F3002BDCD078
:100C0C00B3FA83F3D3E793FAA3F3002B3FF461AF6A
:100C1C00B3FA83F3DBE793FAA3F232B1B2FA82F2BE
:100C2C00013202F01F02092A25D893FAA3F2B2FA74
:100C3C0082F20132920602F0F84293FAA3F7B7FA65
:100C4C0087F7013707F01F07012169E793FAA3F330
:100C5C00B3FA83F36AE702F0F842B9401143D8B90A
:100C6C009B0E013303F01F0303EB43031E3B1B05D9
:100C7C0043F0007360E793FAA3F2B2FA82F2013206
:100C8C00920602F0F84293FAA3F7B7FA87F7013706
:100C9C0007F01F070121E0E793FAA3F2B2FA82F200
:100CAC00013202F01F0203236FF01D0013FB02033D
:100CBC00DDE71F4B1F4E9A68B14202F0E0701DD168
:100CCC0016023FF543AF1C4A94427FF43FAF9A683B
:100CDC0022F0E072024342F400029A60174B1A6849
:100CEC00174BB2FBF3F20C2302FB03330193019B72
:100CFC00002B3FF42BAF019B013BF7E7114EB142A8
:100D0C0024D1D1013FF522AF0B4A94427FF41EAFA0
:100D1C009A6822F0E072024342F080729A6015E702
:100D2C00A4240008FFFF070000007F40000008809B
:100D3C0000030450000052C70000045008000020BB
:100D4C00400D0300000084CB00F0FF030C4EB142B9
:100D5C007FF4FCAE52023FF5F9AE0A4A94427FF49E
:100D6C00F5AE9A6822F0E072024342F48002D5E7B5
:100D7C006A6D42F020026A651846E8E60220E9E650
:100D8C000100008000000450036870B5044618464A
:100D9C00FFF71EFD9A6802F00802024301D1002001
:100DAC0070BDDA6892013AD5208B40F20112904264
:100DBC0035D1274A19684E0625D540221A600121E3
:100DCC001846FFF705FD50B19A68950707D49A6845
:100DDC0022F0004222F03F0242F010029A600129F8
:100DEC001FD10425FFF7BCFC064623689B682B42E9
:100DFC00D5D0FFF7B5FC801B0528F6D923689B6876
:100E0C002B42F2D001E0013AD4D1636D43F01003D0
:100E1C006365A36D43F00103A3650120C0E70229BC
:100E2C00CED19A6810070AD59A68920707D49A68A7
:100E3C0022F0004222F03F0242F020029A60022986
:100E4C0003D00329CDD10C25CCE70825CAE700BF78
:100E5C00010040A373B50023026801939368DD077A
:100E6C00044602D5002002B070BD9168204B194297
:100E7C0009D0636D43F010036365A36D43F0010368
:100E8C00A3650120EFE7936823F0004323F03F03B1
:100E9C0043F001039360174B9B68180219D4FFF7BA
:100EAC005FFC154E054622681368DB07DAD493689D
:100EBC00D9075FBF9368334043F001039360FFF79A
:100ECC004FFC401B0228EED923681B68DA07EAD4D2
:100EDC00CFE70A4B1A680A4BB2FBF3F20C2302FB66
:100EEC0003330193019B002BD9D0019B013BF8E705
:100EFC003F00008000030450C0FFFF7F080000206B
:100F0C00400D030038B504460068FFF761FC054648
:100F1C00002836D194F85030012B32D0012384F8BC
:100F2C0050302046FFF796FF40BB636D23F470638F
:100F3C0023F0010343F480736365636DDA0448BFE7
:100F4C00A36D226852BFA06523F00603A3651C2382
:100F5C001360002384F85030D3689B0141BF636D4C
:100F6C0023F4405343F480536365936823F00043A8
:100F7C0023F03F0343F00403936038BD84F85050D2
:100F8C00FBE70220F9E7026838B5936891680446DC
:100F9C00C80701D4002038BD9907FBD4936803F02F
:100FAC000D03012B19D1936823F0004323F03F0369
:100FBC0043F00203936003231360FFF7D1FB054654
:100FCC0023689B68DB07E5D5FFF7CAFB401B0228AB
:100FDC00F6D923689B68DA07F2D5636D43F01003EA
:100FEC006365A36D43F00103A3650120D3E710B53E
:100FFC0090F85030012B044616D0012380F8503065
:10100C000321FFF7C1FE58B92046FFF7BCFF38B9E2
:10101C00636D23F4885323F0010343F001036365EC
:10102C00002384F8503010BD0220FCE70749CA6841
:10103C0022F4E0620302120403F4E063120C134383
:10104C0043F0BF6343F40033CB60704700ED00E026
:10105C00164B30B5DC68C4F30224C4F10703251D1C
:10106C00042B28BF0423062D4FF0FF358CBF033C07
:10107C00002405FA03F321EA0303A54022EA050242
:10108C00A340002843EA0203ACBF00F16040084AC9
:10109C004FEA0313B8BF00F00F00DBB2AABF00F594
:1010AC006140135480F8003330BD00BF00ED00E008
:1010BC0014ED00E0002807DB044A4109012300F08D
:1010CC001F00834042F82130704700BF00E100E070
:1010DC000138B0F1807F0BD24FF0E023054A586104
:1010EC00F02182F823100020072298611A617047C2
:1010FC000120704700ED00E02DE9F74FDFF87C91FF
:10110C005C4C00230A6832FA03F502D103B0BDE847
:10111C00F08F012505FA03F818EA020200F0A0800E
:10112C004E68032706F003054FEA430E07FA0EFC40
:10113C006F1E012F6FEA0C0C34D8876807EA0C0A73
:10114C00CF6807FA0EF747EA0A078760476827EA6D
:10115C000808C6F300179F4047EA08074760C768AE
:10116C0007EA0C088F6807FA0EF747EA0807022D02
:10117C00C76019D14FEAD30800EB880803F0070ABF
:10118C00D8F820704FEA8A0A4FF00F0B0BFA0AFBC3
:10119C0027EA0B0B0F6907FA0AF747EA0B07C8F89F
:1011AC00207001E0032DDAD1076805FA0EF507EA85
:1011BC000C073D4316F4403F056051D0D9F8605000
:1011CC0045F00105C9F86050D9F8605023F00307C9
:1011DC0007F1804705F0010507F58037019503F00D
:1011EC00030C019DBD684FEA8C0C4FF00F0E0EFAEC
:1011FC000CFEB0F1904F25EA0E0E33D01E4DA842D6
:10120C0032D005F58065A84230D005F58065A8423E
:10121C002ED005F58065A84214BF0725042505FAD4
:10122C000CF545EA0E05BD60A568D74316F4801F82
:10123C000CBF3D401543A560E56816F4001F0CBFBC
:10124C003D401543E560656816F4003F0CBF3D401A
:10125C00154365602568F60354BF3D401543256072
:10126C0001334FE70025DAE70125D8E70225D6E759
:10127C000325D4E70004014000040048001002409C
:10128C000AB181617047816270470000044A51695C
:10129C00014208B502D05061FFF74AF908BD00BF02
:1012AC000004014003689A69910744BF00229A62C6
:1012BC009A69D2075EBF9A6942F001029A6170473F
:1012CC0030B5039D04682B4343EA0243064A606829
:1012DC00C1F309010B4342EA555223F0004320EAC3
:1012EC0002000343636030BDFF63FF0303682DE915
:1012FC00F0419C6914F0100405460F4616466FD059
:10130C0010220024DA61A0462B689A69900661D4F9
:10131C00B8F1000F35D044F0040401202E68B369F5
:10132C00D90541BF4FF48072F26144F001040120F1
:10133C005A0541BF4FF4806244F00804F261012069
:10134C009B054FD54FF4007344F00204F36128461B
:10135C00FFF7A8FF736823F0FF7323F48B3323F498
:10136C00FF7323F0010373606B6C23436B642023C6
:10137C0085F84130002385F8423085F84030012053
:10138C0032E07A1CC1D0FFF7EBF9801BB84201D8D0
:10139C00002FB9D12B68596895F842209869000440
:1013AC00D2B20AD5490408D4202A06D05A6842F48D
:1013BC0080425A60FFF7D4F906462B689B699B065E
:1013CC00A2D4FFF7CDF9801B1928F6D920244FF0B1
:1013DC00010899E7B8F1000F9DD12022DA619AE754
:1013EC0020469BE70028B2D1BDE8F08170B50446D9
:1013FC000D46164623689B699B0701D500201FE00C
:10140C00324629462046FFF771FFC0B96A1CF1D05D
:10141C00FFF7A6F9801BA84201D8002DEAD123685A
:10142C009B6913F00203E5D1626C84F8403042F002
:10143C0020026264202284F8412084F8423001208A
:10144C0070BD2DE9F041DDF8188004460F461646B4
:10145C001D4623689B6937EA03030CBF0123002355
:10146C00B34201D0002025E0424629462046FFF732
:10147C003DFFF0B96B1CECD0FFF772F9A0EB080044
:10148C00A84201D8002DE4D123689B6937EA0303F5
:10149C000CBF01230023B342DBD1636C43F0200368
:1014AC006364202384F84130002384F8423084F8AC
:1014BC0040300120BDE8F08170B504460D4616465B
:1014CC0023689B699B0601D500201DE03246294606
:1014DC002046FFF70BFFB0B9FFF742F9801BA8427B
:1014EC0001D8002DECD123689B6913F02003E7D1C0
:1014FC00626C84F8403042F020026264202284F84E
:10150C00412084F84230012070BD10B504460028FB
:10151C004ED090F8413003F0FF021BB980F8402008
:10152C00FFF758F8242384F8413023681A6822F016
:10153C0001021A60626822F070621A619A6822F4E1
:10154C0000429A60D4E90221012906D142F40042FA
:10155C009A605A6822F4006207E042F404420229BD
:10156C009A60F6D15A6842F400625A605A6842F0A6
:10157C00007242F400425A60DA6822F40042DA60E7
:10158C00D4E904210A43A16942EA0122DA60D4E9D0
:10159C0007210A431A601A6842F001021A600020FF
:1015AC002023606484F84130206384F8420010BD2D
:1015BC000120FCE72DE9F347994690F841300A9F4A
:1015CC00202B04460E46904640F09B8090F840300D
:1015DC00012B00F096804FF0010A80F840A0FFF735
:1015EC00BFF819230546009052464FF4004120469F
:1015FC00FFF727FF18B1012002B0BDE8F0872123C7
:10160C0084F84130102384F842306064A4F82A90A6
:10161C00638DC4F824809BB2FF2B98BF628D6063EE
:10162C0095BF92B2FF224FF000734FF0807322856A
:10163C0092B1C44621681CF8010B8862618DC4F814
:10164C0024C0013989B2013A618592B22E492285B2
:10165C0001320091D2B201E02B4900913146204673
:10166C00FFF72EFE638D9BB22A4639462046BBB946
:10167C00FFF722FF0028BED123682021D9615A68C8
:10168C0022F0FF7222F48B3222F4FF7222F001025C
:10169C005A6084F8411084F8400084F84200ABE7AB
:1016AC00FFF7A4FE0028A6D1636A226813F8011B79
:1016BC0091626362638D228D013B9BB26385638D66
:1016CC00013A92B29BB22285002BCBD0002AC9D111
:1016DC0000953B4680212046FFF7B3FE00288AD1B7
:1016EC00638D9BB2FF2B05D9FF2222854FF08073AF
:1016FC000090B3E7628D92B222854FF00073009098
:10170C00A8E7022078E700BF0020008010B590F811
:10171C004120202A0346D4B21CD190F84020012A43
:10172C0018D0242280F841200268106820F00100B3
:10173C001060106820F48050106010680143116034
:10174C001168002041F00101116083F8414083F8D9
:10175C00400010BD0220FCE710B590F84120202A73
:10176C000346D4B21BD190F84020012A17D0242272
:10177C0080F841200268106820F0010010601068A9
:10178C0020F4706040EA012111601168002041F0E2
:10179C000101116083F8414083F8400010BD022024
:1017AC00FCE70000024B186800F4C060704700BFF3
:1017BC0000700040174A1368B0F5007F03F4C06353
:1017CC001BD1B3F5007F1BD0136823F4C06343F423
:1017DC0000731360104B1B6832214B430F49B3FB52
:1017EC00F1F301335169490500D523B953695B0500
:1017FC0006D503207047013BF4E7B3F5806F01D1A8
:10180C0000207047136823F4C06343F480631360B3
:10181C00F6E700BF007000400800002040420F00B7
:10182C000B4A136823F0070343F002031360094BC0
:10183C001A69012842F004021A6105D130BF1A69F5
:10184C0022F004021A61704740BF20BF20BFF6E7A8
:10185C000070004000ED00E037B51E4DAB6DDA00B6
:10186C00044618D5FFF79EFFB0F5007F23D1802CDE
:10187C0029D9A12C34BF0124022417490A6822F06B
:10188C00070222430A60086800F00700001B18BF1B
:10189C00012003B030BDAB6D43F08053AB65AB6D35
:1018AC0003F080530193019BFFF77CFFAB6D23F09A
:1018BC008053AB65D8E7802C07D808D0A4F170030F
:1018CC005C425C41D9E70024D7E70324D5E7022426
:1018DC00D3E700BF0010024000200240224B9A6860
:1018EC00D96812F00C0205D00C2A15D101F00301B5
:1018FC00012918D119681D48090755BFD3F8941050
:10190C001968C1F30321C1F3031150F821004AB344
:10191C000C2A09D000207047042A22D0082A144827
:10192C0018BF002070470020DA6802F00302022A78
:10193C0015D00F49032A08BF0846D968DA68C2F3E4
:10194C0006224243D868C0F34160C1F30211013052
:10195C0001314000B2FBF1F2B2FBF0F070470548E8
:10196C00EBE70448704700BF0010024064240008F5
:10197C0000127A000024F4002DE9F74305460028F4
:10198C0060D0954C0368A668E768DB0606F00C0689
:10199C0007F0030776D51EB10C2E55D1012F53D16C
:1019AC002368980702D5AB69002B4BD02368286AB3
:1019BC00190756BFD4F8943023681B0903F0F003C1
:1019CC00984229D9FFF748FF00283BD1236843F000
:1019DC000803236023682A6A23F0F003134323606F
:1019EC006368EA6923F47F4343EA02236360FFF7E9
:1019FC0075FFA368794AC3F30313D35C03F01F0389
:101A0C00D840774B1860774B1868FEF767FE0028B4
:101A1C0038D003B0BDE8F083236843F0080323609B
:101A2C00236823F0F003034323606368EA6923F41B
:101A3C007F4343EA02236360002ED8D1FFF70CFFEB
:101A4C000028D4D00120E4E7AB69002B3AD02368FE
:101A5C0043F001032360FEF783FE804623689A0758
:101A6C0028D5236843F00803236023682A6A23F0EF
:101A7C00F003134323606368EA6923F47F4343EA6A
:101A8C00022363602B68D8072DD42B6899076BD47D
:101A9C002B68180700F1A8802B68590700F1CE803D
:101AAC002B68980600F13781AB6A002B40F05D8102
:101ABC000020AEE7FEF754FEA0EB08000228CDD9BB
:101ACC000320A6E7236823F001032360FEF748FEFA
:101ADC00804623689B07D5D5FEF742FEA0EB080095
:101AEC000228F6D9ECE7082E03D00C2E08D1032FD0
:101AFC0006D123689A03C8D56B68002BC5D1A1E722
:101B0C006B68B3F5803F10D1236843F480332360B6
:101B1C00FEF726FE804623689B03B6D4FEF720FE14
:101B2C00A0EB08006428F6D9CAE7B3F5A02F04D1BE
:101B3C00236843F480232360E6E7226822F4803292
:101B4C002260226822F480222260002BE0D1FEF772
:101B5C0007FE80462368980397D5FEF701FEA0EB9D
:101B6C0008006428F6D9ABE7042E03D00C2E10D154
:101B7C00022F0ED12368590503D5EB68002B3FF4D7
:101B8C0061AF63682A6923F0F85343EA0263636028
:101B9C007EE7EB687BB1236843F480732360FEF728
:101BAC00DFFD074623685A05EBD4FEF7D9FDC01BB1
:101BBC000228F7D984E7236823F480732360FEF7A7
:101BCC00CFFD074623685B057FF562AFFEF7C8FDC6
:101BDC00C01B0228F6D973E70010024094240008B9
:101BEC0008000020100000206B699BB1D4F89430E1
:101BFC0043F00103C4F89430FEF7B2FD0746D4F865
:101C0C0094309A073FF548AFFEF7AAFDC01B022897
:101C1C00F5D955E7D4F8943023F00103C4F8943087
:101C2C00FEF79EFD0746D4F894309B077FF534AF42
:101C3C00FEF796FDC01B0228F5D941E7A36DDF0026
:101C4C0029D4A36D43F08053A365A36D03F0805397
:101C5C000193019B4FF00108954F3B68D8051DD5AA
:101C6C00AB68012B2BD1D4F8903043F00103C4F8AE
:101C7C009030FEF775FD41F288390746D4F8903064
:101C8C009A0742D5B8F1000F3FF40AAFA36D23F0C9
:101C9C008053A36504E74FF00008DDE73B6843F48D
:101CAC0080733B60FEF75CFD81463B68D905D7D459
:101CBC00FEF756FDA0EB09000228F6D900E7052B2C
:101CCC0006D1D4F8903043F00403C4F89030CAE73E
:101CDC00D4F8902022F00102C4F89020D4F890207F
:101CEC0022F00402C4F89020002BC2D1FEF738FD7C
:101CFC0041F288390746D4F890309B07C2D5FEF7DD
:101D0C002FFDC01B4845F6D9DAE6FEF729FDC01BAE
:101D1C004845B3D9D4E66B6A9BB1D4F8983043F0FC
:101D2C000103C4F89830FEF71BFD0746D4F8983031
:101D3C0099073FF5B9AEFEF713FDC01B0228F5D984
:101D4C00BEE6D4F8983023F00103C4F89830FEF7BF
:101D5C0007FD0746D4F898309A077FF5A5AEFEF735
:101D6C00FFFCC01B0228F5D9AAE6022B40F08880A4
:101D7C00E368EA6A03F00301914222D1296B03F074
:101D8C0070020139B2EB011F1BD1696B03F4FE42E7
:101D9C00B2EB012F15D1A96B03F07842B2EBC16FF6
:101DAC000FD1EA6B520803F4C001013AB1EB425F68
:101DBC0007D12A6C520803F0C063013AB3EB426FAF
:101DCC0045D00C2E3FF43EAE23685B013FF53AAE96
:101DDC00236823F080732360FEF7C2FC0646236859
:101DEC009F012ED4E268334B1340EA6A13436A6BAB
:101DFC0043EA0223AA6B43EAC2632A6B013A43EA21
:101E0C000213EA6B5208013A43EA42532A6C520815
:101E1C00013A43EA4263E360236843F08073236032
:101E2C00E36843F08073E360FEF79AFC0546236891
:101E3C0098013FF53DAEFEF793FC401B0228F6D906
:101E4C003EE6FEF78DFC801B0228C8D938E62368D5
:101E5C0099013FF52DAE236843F080732360E3684E
:101E6C0043F08073E360FEF77BFC054623689A0120
:101E7C003FF51EAEFEF774FC401B0228F6D91FE698
:101E8C000C2E3FF4DFAD236823F080732360FEF744
:101E9C0067FC054623689B0104D4E268064B13409B
:101EAC00E36005E6FEF75CFC401B0228F2D907E66E
:101EBC00007000408C809D01FCFFEEFE2DE9F0418E
:101ECC000D46044610B90120BDE8F0814B4A136859
:101EDC0003F007038B422CD32168880734D4C9073D
:101EEC003FD421688A0768D4444A136803F0070377
:101EFC00AB426FD811F0040F414D77D10B0706D5CB
:101F0C00AB68226923F4605343EAC203AB60FFF76A
:101F1C00E5FCAB683B4AC3F30313BDE8F041D35C6B
:101F2C0003F01F03D840384B1860384B1868FEF785
:101F3C00D5BB136823F007030B431360136803F03E
:101F4C0007038B42BFD1C7E72D4AA068936803F003
:101F5C00F003984281BF936823F0F003034393602E
:101F6C00BDE76268264E032A33681AD113F0007F4E
:101F7C00A9D0B36823F003031343B360FEF7F0FB5F
:101F8C0041F288380746B368626803F00C03B3EB80
:101F9C00820FA6D0FEF7E4FBC01B4045F3D903200B
:101FAC0092E7022A02D113F4003FE1E712B913F0D1
:101FBC00020FDDE713F4806FDAE7114AA06893682B
:101FCC0003F0F00398423FBF936823F0F003034300
:101FDC00936089E7136823F007032B43136013689E
:101FEC0003F00703AB427FF46EAF83E7AB68E268A4
:101FFC0023F4E0631343AB6080E700BF0020024092
:10200C00001002409424000808000020100000205A
:10201C00F8B5414CE3689B0705460E46006828D08E
:10202C00E36803F0030383423AD1002B38D0E36812
:10203C006A68C3F302130133934231D1236823F04E
:10204C0080632360FEF78CFB074623681A0130D4AB
:10205C00AA681202A6B3012E23694BD1296923F475
:10206C00C003490823F4FE430139134343EA4153A7
:10207C002FE0022810D0032814D0012810D1236897
:10208C009F071CD5E3686A6823F07303013A034386
:10209C0043EA0213E360D1E7236813F4806FF1D1B4
:1020AC0001200CE023689903ECD4236813F4802FEF
:1020BC00F5E7FEF755FBC01B0228C6D90320F8BD77
:1020CC002169EB6842EAC36321F0784222F4FE42B4
:1020DC0013432361236843F080632360FEF740FBC6
:1020EC00064623681B0110D52369AA691343236193
:1020FC000020E4E7696923F0C063490823F4FE4338
:10210C000139134343EA4163E3E7FEF729FB801BE4
:10211C000228E6D9D2E700BF0010024003682DE97F
:10212C00F7431D05044640F1FD80416CB1F5000FED
:10213C0000F0EA80B1F5400F00F0EB80002900F0D0
:10214C00F38001262368980333D5A54DAB6DD900D8
:10215C0000F1F280AB6D43F08053AB65AB6D03F0D7
:10216C0080530193019B0127DFF87882D8F8003067
:10217C0043F48073C8F80030FEF7F2FA8146D8F8C1
:10218C000030DA0540F1DA8076B9D5F89020A36DED
:10219C0012F4407240F0DB80D5F89030A26D23F43D
:1021AC0040731343C5F890301FB1AB6D23F08053CF
:1021BC00AB652368D90708D58949206AD1F88820EE
:1021CC0022F003020243C1F888209A0708D58449FB
:1021DC00606AD1F8882022F00C020243C1F88820F2
:1021EC005F0708D57E49A06AD1F8882022F030021A
:1021FC000243C1F888209D0608D57949E06AD1F8D8
:10220C00882022F440620243C1F88820980508D542
:10221C007349E06BD1F8882022F440220243C1F8C4
:10222C008820590508D56E49206CD1F8882022F4F5
:10223C0040120243C1F888205A0608D56849206B21
:10224C00D1F8882022F440520243C1F888201F069E
:10225C0008D56349606BD1F8882022F440420243D0
:10226C00C1F88820DD0508D55D49A06BD1F8882020
:10227C0022F440320243C1F88820180310D5584A82
:10228C00A16CD2F8883023F040630B43B1F1006F9E
:10229C00C2F8883040F08380D36843F48013D36055
:1022AC003746236859030FD54D4AE16CD2F8883074
:1022BC0023F040630B43B1F1006FC2F888307BD13F
:1022CC00D36843F48013D3603D4623685A040BD57E
:1022DC004349226DD1F8883023F040531343B2F1B7
:1022EC00805FC1F8883073D0284623681B0408D55A
:1022FC003B4A616DD2F8883023F080430B43C2F81F
:10230C00883003B0BDE8F083354AD36843F480339A
:10231C00D360334A616CD2F8883023F440030B430A
:10232C00C2F8883000260DE70430FFF771FE064630
:10233C0000287FF407AFECE7002715E7FEF710FA4B
:10234C00A0EB090002287FF61AAF03262CE79A426D
:10235C0011D0D5F89030D5F8902042F48032C5F8E1
:10236C009020D5F8902023F4407322F48032C5F8E5
:10237C009020C5F89030DB077FF50EAFFEF7F0F933
:10238C0041F288398046D5F8903098073FF504AF74
:10239C00FEF7E6F9A0EB08004845F4D9D5E7B1F112
:1023AC00806F7FF47DAF0121201DFFF731FE0746C2
:1023BC0000283FF475AF74E7B1F1806F84D101212F
:1023CC00201DFFF725FE054600283FF47DAF7CE776
:1023DC000221201DFFF71CFE002885D085E700BFD9
:1023EC00001002400070004002440346934200D1AA
:1023FC00704703F8011BF9E770B50D4D0D4C641BCC
:10240C00A4100026A64209D10B4D0C4C00F018F874
:10241C00641BA4100026A64205D170BD55F8043BE0
:10242C0098470136EEE755F8043B98470136F2E73A
:10243C00AC240008AC240008AC240008B02400082C
:10244C00F8B500BFF8BC08BC9E467047F8B500BF95
:08245C00F8BC08BC9E46704765
:10246400A0860100400D0300801A060000350C0010
:1024740040420F0080841E0000093D0000127A00D3
:102484000024F40000366E010048E801006CDC0210
:102494000000000000000000010203040607080910
:0824A4000C00120018000001F9
:0424AC00B101000872
:0424B0008D01000892
:1024B400010000000A00000000093D0001000000C6
:0424C4001000000004
:040000050800069554
:00000001FF
