:020000040800F2
:1000000000C00020F10300086D030008750300081C
:100010007D030008850300088D0300080000000030
:100020000000000000000000000000009503000830
:10003000A303000800000000B1030008BF0300088C
:10004000410400084104000841040008410400087C
:10005000410400084104000841040008410400086C
:10006000410400084104000841040008410400085C
:10007000410400084104000841040008410400084C
:10008000410400084104000841040008410400083C
:10009000410400084104000841040008410400082C
:1000A000410400084104000841040008410400081C
:1000B00041040008000000000000000041040008A6
:1000C00041040008410400084104000841040008FC
:1000D00041040008410400084104000841040008EC
:1000E0004104000841040008000000000000000076
:1000F0000000000000000000000000000000000000
:100100000000000041040008000000004104000855
:100110000000000000000000410400084104000845
:10012000410400084104000841040008410400089B
:100130004104000800000000000000000000000072
:1001400041040008410400084104000800000000C8
:10015000410400084104000841040008410400086B
:1001600041040008410400084104000800000000A8
:1001700041040008410400080000000000000000E5
:0C0180004104000841040008410400088C
:10018C0010B5054C237833B9044B13B10448AFF3C5
:10019C0000800123237010BD0C0000200000000023
:1001AC00D817000808B5034B1BB103490348AFF33C
:1001BC00008008BD0000000010000020D8170008C7
:1001CC0080B500AF00F037F900F022F800F06CF8C1
:1001DC0000F0CAF901224FF400510B4800F034FC36
:1001EC004FF40051084800F047FC4FF4804106489A
:1001FC0000F042FC054B1B680133044A1360642079
:10020C0000F08EF900BFEBE7000400482800002046
:10021C0080B596B000AF07F11403442200211846B4
:10022C0001F0A8FA3B4600221A605A609A60DA6024
:10023C001A614FF4007000F047FC0346002B01D00C
:10024C0000F064F810237B610123FB6200233B6305
:10025C0060237B630023FB6307F11403184600F053
:10026C0089FC0346002B01D000F050F80F233B60B3
:10027C0000237B600023BB600023FB6000233B61F9
:10028C003B460021184601F089F80346002B01D0AB
:10029C0000F03CF8034B4FF000629A6000BF5837F7
:1002AC00BD4680BD00ED00E080B586B000AF3B1DC3
:1002BC0000221A605A609A60DA601A61114BDB6C8A
:1002CC00104A43F00203D3640E4BDB6C03F00203C1
:1002DC003B603B6800224FF4C0410B4800F0B4FB7C
:1002EC004FF4C0437B600123BB600023FB60002301
:1002FC003B613B1D1946044800F02CFA00BF18372F
:10030C00BD4680BD001002400004004880B400AF20
:10031C0072B600BF00BFFDE780B483B000AF0F4BD7
:10032C001B6E0E4A43F0010313660C4B1B6E03F05D
:10033C0001037B607B68094B9B6D084A43F080533B
:10034C009365064B9B6D03F080533B603B6800BF8D
:10035C000C37BD465DF8047B704700BF00100240AF
:10036C0080B400AF00BFFDE780B400AF00BFFDE775
:10037C0080B400AF00BFFDE780B400AF00BFFDE765
:10038C0080B400AF00BFFDE780B400AF00BFBD4636
:10039C005DF8047B704780B400AF00BFBD465DF8CC
:1003AC00047B704780B400AF00BFBD465DF8047B92
:1003BC00704780B500AF00F093F800BF80BD00001F
:1003CC0080B400AF064BD3F88830054A43F4700371
:1003DC00C2F8883000BFBD465DF8047B704700BF93
:1003EC0000ED00E0DFF834D0FFF7EAFF0C480D49D0
:1003FC000D4A002302E0D458C4500433C4188C4274
:10040C00F9D30A4A0A4C002301E013600432A242D9
:10041C00FBD301F0B7F9FFF7D3FEFEE700C00020D5
:10042C00000000200C000020381800080C000020F0
:10043C0030000020FEE780B582B000AF0023FB71D6
:10044C00032000F053F90F2000F00EF80346002BA8
:10045C0002D00123FB7101E0FFF75EFFFB79184628
:10046C000837BD4680BD000080B584B000AF786011
:10047C000023FB73174B1B78002B23D0164B1A68E9
:10048C00144B1B7819464FF47A73B3FBF1F3B2FBA0
:10049C00F3F3184600F051F90346002B0FD17B689B
:1004AC000F2B09D8002279684FF0FF3000F029F9A2
:1004BC000A4A7B68136007E00123FB7304E0012305
:1004CC00FB7301E00123FB73FB7B18461037BD4621
:1004DC0080BD00BF080000200000002004000020A8
:1004EC0080B400AF064B1B781A46064B1B681344AE
:1004FC00044A136000BFBD465DF8047B704700BF23
:10050C00080000202C00002080B400AF034B1B68B7
:10051C001846BD465DF8047B704700BF2C000020D8
:10052C0080B584B000AF7860FFF7EEFFB8607B68F1
:10053C00FB60FB68B3F1FF3F05D00A4B1B781A46F2
:10054C00FB681344FB6000BFFFF7DEFF0246BB688D
:10055C00D31AFA689A42F7D800BF00BF1037BD46CD
:10056C0080BD00BF0800002080B400AF054B1B68A5
:10057C00044A43F00203136000BFBD465DF8047BE0
:10058C00704700BF10E000E080B485B000AF786029
:10059C007B6803F00703FB600C4BDB68BB60BA683D
:1005AC004FF6FF031340BB60FB681A02BB68134392
:1005BC0043F0BF6343F40033BB60044ABB68D360B1
:1005CC0000BF1437BD465DF8047B704700ED00E0BA
:1005DC0080B400AF044BDB681B0A03F0070318461A
:1005EC00BD465DF8047B704700ED00E080B483B03D
:1005FC0000AF03463960FB7197F90730002B0ADB1B
:10060C003B68DAB20C4997F907301201D2B20B44AD
:10061C0083F800230AE03B68DAB20849FB7903F05F
:10062C000F03043B1201D2B20B441A7600BF0C37F5
:10063C00BD465DF8047B704700E100E000ED00E092
:10064C0080B489B000AFF860B9607A60FB6803F0E1
:10065C000703FB61FB69C3F10703042B28BF0423C9
:10066C00BB61FB690433062B02D9FB69033B00E039
:10067C0000237B614FF0FF32BB6902FA03F3DA43CC
:10068C00BB681A407B699A404FF0FF317B6901FAD5
:10069C0003F3D9437B680B40134318462437BD46FC
:1006AC005DF8047B7047000080B582B000AF7860C5
:1006BC007B68013BB3F1807F01D301230FE00A4A31
:1006CC007B68013B53600F214FF0FF30FFF78EFF2B
:1006DC00054B00229A60044B07221A60002318462F
:1006EC000837BD4680BD00BF10E000E080B582B089
:1006FC0000AF78607868FFF747FF00BF0837BD464A
:10070C0080BD80B586B000AF0346B9607A60FB73DC
:10071C0000237B61FFF75CFF78617A68B9687869C0
:10072C00FFF78EFF024697F90F3011461846FFF778
:10073C005DFF00BF1837BD4680BD80B582B000AFED
:10074C0078607868FFF7B0FF034618460837BD4657
:10075C0080BD000080B487B000AF786039600023A2
:10076C007B6154E13B681A6801217B6901FA03F350
:10077C001340FB60FB68002B00F046813B685B6814
:10078C0003F00303012B05D03B685B6803F0030304
:10079C00022B30D17B689B683B617B695B00032239
:1007AC0002FA03F3DB433A6913403B613B68DA68B6
:1007BC007B695B0002FA03F33A6913433B617B6884
:1007CC003A699A607B685B683B6101227B6902FA3B
:1007DC0003F3DB433A6913403B613B685B681B09DD
:1007EC0003F001027B6902FA03F33A6913433B619C
:1007FC007B683A695A603B685B6803F00303032B20
:10080C0017D07B68DB683B617B695B00032202FAD3
:10081C0003F3DB433A6913403B613B689A687B699D
:10082C005B0002FA03F33A6913433B617B683A6954
:10083C00DA603B685B6803F00303022B23D17B690E
:10084C00DA087B68083253F822303B617B6903F08D
:10085C0007039B000F2202FA03F3DB433A691340B0
:10086C003B613B681A697B6903F007039B0002FA42
:10087C0003F33A6913433B617B69DA087B680832FE
:10088C00396943F822107B681B683B617B695B000C
:10089C00032202FA03F3DB433A6913403B613B68E2
:1008AC005B6803F003027B695B0002FA03F33A69AD
:1008BC0013433B617B683A691A603B685B6803F4DD
:1008CC004033002B00F0A080584B1B6E574A43F06E
:1008DC0001031366554B1B6E03F00103BB60BB6831
:1008EC00534A7B699B08023352F823303B617B6986
:1008FC0003F003039B000F2202FA03F3DB433A6974
:10090C0013403B617B68B3F1904F19D07B68494A27
:10091C00934213D07B68484A93420DD07B68474A78
:10092C00934207D07B68464A934201D1042308E0E6
:10093C00072306E0032304E0022302E0012300E086
:10094C0000237A6902F00302920093403A69134340
:10095C003B6137497B699B0802333A6941F8232094
:10096C00384B9B683B61FB68DB433A6913403B6146
:10097C003B685B6803F48013002B03D03A69FB6877
:10098C0013433B612F4A3B6993602E4BDB683B6101
:10099C00FB68DB433A6913403B613B685B6803F4DB
:1009AC000013002B03D03A69FB6813433B61254AC3
:1009BC003B69D360234B5B683B61FB68DB433A6963
:1009CC0013403B613B685B6803F40033002B03D09E
:1009DC003A69FB6813433B611A4A3B695360194BF4
:1009EC001B683B61FB68DB433A6913403B613B6826
:1009FC005B6803F48033002B03D03A69FB68134324
:100A0C003B61104A3B6913607B6901337B613B6836
:100A1C001A687B6922FA03F3002B7FF4A3AE00BFA4
:100A2C0000BF1C37BD465DF8047B704700100240C8
:100A3C00000001400004004800080048000C004879
:100A4C00001000480004014080B483B000AF78600F
:100A5C000B467B8013467B707B78002B03D07A8807
:100A6C007B689A6102E07A887B689A6200BF0C37D7
:100A7C00BD465DF8047B704780B485B000AF7860EC
:100A8C000B467B807B685B69FB607A88FB68134054
:100A9C001A04FB68D9437B880B401A437B689A6124
:100AAC0000BF1437BD465DF8047B704780B400AFBF
:100ABC00044B1B6803F4C0631846BD465DF8047B09
:100ACC00704700BF0070004080B485B000AF786004
:100ADC007B68B3F5007F30D1234B1B6803F4C063F4
:100AEC00B3F5007F38D0204B1B6823F4C0631E4A3B
:100AFC0043F4007313601D4B1B68322202FB03F39B
:100B0C001B4AA2FB03239B0C0133FB6002E0FB6836
:100B1C00013BFB60144B5B6903F48063B3F5806F9E
:100B2C0002D1FB68002BF2D10F4B5B6903F480639D
:100B3C00B3F5806F10D103230FE00B4B1B6803F44C
:100B4C00C063B3F5806F07D0074B1B6823F4C063F9
:100B5C00054A43F480631360002318461437BD46DE
:100B6C005DF8047B704700BF00700040000000205F
:100B7C0083DE1B4380B588B000AF78607B68002BA8
:100B8C0002D1012300F002BC964B9B6803F00C03CE
:100B9C00BB61944BDB6803F003037B617B681B68D0
:100BAC0003F01003002B00F0E480BB69002B07D08E
:100BBC00BB690C2B40F08B807B69012B40F087804C
:100BCC00884B1B6803F00203002B05D07B689B69E4
:100BDC00002B01D10123D9E37B681A6A814B1B6876
:100BEC0003F00803002B04D07E4B1B6803F0F003CA
:100BFC0005E07C4BD3F894301B0903F0F0039342CF
:100C0C0023D27B681B6A184600F054FD0346002B68
:100C1C0001D00123BAE3734B1B68724A43F00803FB
:100C2C001360704B1B6823F0F0027B681B6A6D49E4
:100C3C0013430B606B4B5B6823F47F427B68DB696F
:100C4C001B02684913434B6025E0664B1B68654AE1
:100C5C0043F008031360634B1B6823F0F0027B68BE
:100C6C001B6A604913430B605E4B5B6823F47F4245
:100C7C007B68DB691B025B4913434B60BB69002B30
:100C8C0009D17B681B6A184600F014FD0346002B43
:100C9C0001D001237AE300F081FC0246514B9B68A2
:100CAC001B0903F00F035049CB5C03F01F0322FA1E
:100CBC0003F34E4A13604E4B1B681846FFF7D4FBE8
:100CCC000346FB73FB7B002B52D0FB7B5EE37B6804
:100CDC009B69002B32D0434B1B68424A43F0010303
:100CEC001360FFF711FC386108E0FFF70DFC0246BA
:100CFC003B69D31A022B01D9032347E3394B1B68F9
:100D0C0003F00203002BF0D0364B1B68354A43F03E
:100D1C0008031360334B1B6823F0F0027B681B6ADB
:100D2C00304913430B602F4B5B6823F47F427B6885
:100D3C00DB691B022B4913434B601AE0294B1B68E0
:100D4C00284A23F001031360FFF7DEFB386108E04B
:100D5C00FFF7DAFB02463B69D31A022B01D90323B6
:100D6C0014E3204B1B6803F00203002BF0D100E0CE
:100D7C0000BF7B681B6803F00103002B73D0BB69B9
:100D8C00082B05D0BB690C2B0ED17B69032B0BD127
:100D9C00144B1B6803F40033002B63D07B685B6837
:100DAC00002B5FD10123F1E27B685B68B3F5803FD8
:100DBC0006D10C4B1B680B4A43F48033136025E0BF
:100DCC007B685B68B3F5A02F14D1064B1B68054AF2
:100DDC0043F480231360034B1B68024A43F48033B3
:100DEC00136013E000100240F01700080000002010
:100DFC0004000020A04B1B689F4A23F4803313602F
:100E0C009D4B1B689C4A23F4802313607B685B68B2
:100E1C00002B13D0FFF778FB386108E0FFF774FB69
:100E2C0002463B69D31A642B01D90323AEE2924BE1
:100E3C001B6803F40033002BF0D014E0FFF764FBC5
:100E4C00386108E0FFF760FB02463B69D31A642B5C
:100E5C0001D903239AE2884B1B6803F40033002B5F
:100E6C00F0D100E000BF7B681B6803F00203002B8D
:100E7C0060D0BB69042B05D0BB690C2B19D17B69E5
:100E8C00022B16D17C4B1B6803F48063002B05D01E
:100E9C007B68DB68002B01D1012377E2764B5B6822
:100EAC0023F0F8527B681B691B06734913434B6094
:100EBC0040E07B68DB68002B23D06F4B1B686E4ACD
:100ECC0043F480731360FFF71FFB386108E0FFF7F2
:100EDC001BFB02463B69D31A022B01D9032355E2B3
:100EEC00654B1B6803F48063002BF0D0624B5B688E
:100EFC0023F0F8527B681B691B065F4913434B6058
:100F0C0018E05D4B1B685C4A23F480731360FFF799
:100F1C00FBFA386108E0FFF7F7FA02463B69D31A8F
:100F2C00022B01D9032331E2534B1B6803F480637A
:100F3C00002BF0D17B681B6803F00803002B3CD01E
:100F4C007B685B69002B1CD04B4BD3F894304A4A1E
:100F5C0043F00103C2F89430FFF7D6FA386108E089
:100F6C00FFF7D2FA02463B69D31A022B01D90323AD
:100F7C000CE2414BD3F8943003F00203002BEFD07A
:100F8C001BE03D4BD3F894303B4A23F00103C2F8ED
:100F9C009430FFF7B9FA386108E0FFF7B5FA02466A
:100FAC003B69D31A022B01D90323EFE1324BD3F85F
:100FBC00943003F00203002BEFD17B681B6803F025
:100FCC000403002B00F0A6800023FB772A4B9B6DBB
:100FDC0003F08053002B0DD1274B9B6D264A43F019
:100FEC0080539365244B9B6D03F08053BB60BB68AF
:100FFC000123FB77214B1B6803F48073002B18D162
:10100C001E4B1B681D4A43F480731360FFF77CFA78
:10101C00386108E0FFF778FA02463B69D31A022BD5
:10102C0001D90323B2E1154B1B6803F48073002B29
:10103C00F0D07B689B68012B08D10F4BD3F8903014
:10104C000D4A43F00103C2F8903029E07B689B689D
:10105C00052B15D1084BD3F89030074A43F0040305
:10106C00C2F89030044BD3F89030034A43F001039C
:10107C00C2F8903014E000BF001002400070004035
:10108C009A4BD3F89030994A23F00103C2F8903070
:10109C00964BD3F89030954A23F00403C2F8903065
:1010AC007B689B68002B16D0FFF72EFA38610AE09C
:1010BC00FFF72AFA02463B69D31A41F2883293426F
:1010CC0001D9032362E1894BD3F8903003F002037A
:1010DC00002BEDD015E0FFF717FA38610AE0FFF7A7
:1010EC0013FA02463B69D31A41F28832934201D972
:1010FC0003234BE17D4BD3F8903003F00203002B1C
:10110C00EDD1FB7F012B05D1784B9B6D774A23F0FA
:10111C00805393657B681B6803F02003002B3CD045
:10112C007B685B6A002B1CD0704BD3F898306F4AED
:10113C0043F00103C2F89830FFF7E6F9386108E094
:10114C00FFF7E2F902463B69D31A022B01D90323BC
:10115C001CE1664BD3F8983003F00203002BEFD060
:10116C001BE0624BD3F89830604A23F00103C2F8BD
:10117C009830FFF7C9F9386108E0FFF7C5F9024666
:10118C003B69D31A022B01D90323FFE0574BD3F849
:10119C00983003F00203002BEFD17B689B6A002B85
:1011AC0000F0F3807B689B6A022B40F0C9804F4BA8
:1011BC00DB687B617B6903F003027B68DB6A9A4224
:1011CC002CD17B6903F070027B681B6B013B1B010C
:1011DC009A4223D17B6903F4FE427B685B6B1B0252
:1011EC009A421BD17B6903F078427B689B6BDB06D0
:1011FC009A4213D17B6903F4C0027B68DB6B5B08FA
:10120C00013B5B059A4209D17B6903F0C0627B68A4
:10121C001B6C5B08013B5B069A426BD0BB690C2BC9
:10122C0062D0324B1B6803F08063002B01D001238A
:10123C00ACE02E4B1B682D4A23F080731360FFF734
:10124C0063F9386108E0FFF75FF902463B69D31A8E
:10125C00022B01D9032399E0244B1B6803F0007384
:10126C00002BF0D1214BDA68214B13407A68D16AFC
:10127C007A68126B013A120111437A68526B1202AE
:10128C0011437A68D26B5208013A520511437A68BD
:10129C00126C5208013A520611437A68926BD206CC
:1012AC000A4312491343CB60104B1B680F4A43F09F
:1012BC00807313600D4BDB680C4A43F08073D36072
:1012CC00FFF722F9386108E0FFF71EF902463B6987
:1012DC00D31A022B01D9032358E0044B1B6803F0EB
:1012EC000073002BF0D050E001234FE000100240BF
:1012FC008C809D01274B1B6803F00073002B44D19D
:10130C00244B1B68234A43F080731360214BDB682A
:10131C00204A43F08073D360FFF7F6F8386108E099
:10132C00FFF7F2F802463B69D31A022B01D90323CB
:10133C002CE0184B1B6803F00073002BF0D024E05A
:10134C00BB690C2B1FD0134B1B68124A23F0807304
:10135C001360FFF7D9F8386108E0FFF7D5F80246BB
:10136C003B69D31A022B01D903230FE0094B1B68ED
:10137C0003F00073002BF0D1064BDA680549064BDD
:10138C001340CB6001E0012300E000231846203716
:10139C00BD4680BD00100240FCFFEEFE80B584B05F
:1013AC0000AF786039607B68002B01D10123E7E046
:1013BC00754B1B6803F007033A689A4210D9724BBD
:1013CC001B6823F0070270493B6813430B606E4B9C
:1013DC001B6803F007033A689A4201D00123CFE05F
:1013EC007B681B6803F00203002B10D07B689A68A3
:1013FC00664B9B6803F0F0039A4208D9634B9B68D9
:10140C0023F0F0027B689B68604913438B607B6818
:10141C001B6803F00103002B4CD07B685B68032B2B
:10142C0007D15A4B1B6803F00073002B21D1012309
:10143C00A6E07B685B68022B07D1544B1B6803F456
:10144C000033002B15D101239AE07B685B68002BDD
:10145C0007D14E4B1B6803F00203002B09D101236B
:10146C008EE04A4B1B6803F48063002B01D10123EF
:10147C0086E0464B9B6823F003027B685B6843491C
:10148C0013438B60FFF740F8F8600AE0FFF73CF875
:10149C000246FB68D31A41F28832934201D90323E6
:1014AC006EE03A4B9B6803F00C027B685B689B0018
:1014BC009A42EBD17B681B6803F00203002B10D01F
:1014CC007B689A68314B9B6803F0F0039A4208D210
:1014DC002E4B9B6823F0F0027B689B682B491343CF
:1014EC008B60294B1B6803F007033A689A4210D2B1
:1014FC00254B1B6823F0070223493B6813430B6001
:10150C00214B1B6803F007033A689A4201D0012370
:10151C0036E07B681B6803F00403002B08D01B4BE0
:10152C009B6823F4E0627B68DB68184913438B608B
:10153C007B681B6803F00803002B09D0134B9B68D6
:10154C0023F460527B681B69DB00104913438B60EA
:10155C0000F024F802460D4B9B681B0903F00F03A7
:10156C000B49CB5C03F01F0322FA03F3094A136007
:10157C00094B1B681846FEF777FF0346FB72FB7A94
:10158C0018461037BD4680BD0020024000100240B6
:10159C00F0170008000000200400002080B489B07F
:1015AC0000AF0023FB610023BB613E4B9B6803F043
:1015BC000C033B613B4BDB6803F00303FB603B69B3
:1015CC00002B05D03B690C2B21D1FB68012B1ED1C4
:1015DC00344B1B6803F00803002B07D1314BD3F8B5
:1015EC0094301B0A03F00F03FB6105E02D4B1B68C5
:1015FC001B0903F00F03FB612B4AFB6952F82330E4
:10160C00FB613B69002B0DD1FB69BB610AE03B69B7
:10161C00042B02D1254BBB6104E03B69082B01D1A3
:10162C00234BBB613B690C2B34D11E4BDB6803F0A5
:10163C000303BB60BB68022B03D0BB68032B03D036
:10164C0005E01A4B7B6105E0194B7B6102E0FB69FD
:10165C007B6100BF134BDB681B0903F007030133ED
:10166C007B60104BDB681B0A03F07F037A6903FB7A
:10167C0002F27B68B2FBF3F37B610A4BDB685B0E17
:10168C0003F0030301335B003B607A693B68B2FBF8
:10169C00F3F3BB61BB6918462437BD465DF8047B88
:1016AC00704700BF00100240001800080024F4002E
:1016BC0000127A0080B586B000AF786000233B61E1
:1016CC002A4B9B6D03F08053002B03D0FFF7EEF9F0
:1016DC00786114E0254B9B6D244A43F0805393654D
:1016EC00224B9B6D03F08053FB60FB68FFF7DEF928
:1016FC0078611E4B9B6D1D4A23F0805393657B696B
:10170C00B3F5007F0BD17B68802B19D97B68A02B9C
:10171C0002D902233B6113E001233B6110E07B689B
:10172C00802B02D903233B610AE07B68802B02D11A
:10173C0002233B6104E07B68702B01D101233B61E8
:10174C000B4B1B6823F0070209493B6913430B60E1
:10175C00074B1B6803F007033A699A4201D0012337
:10176C0000E0002318461837BD4680BD001002402B
:10177C000020024002440346934200D1704703F814
:10178C00011BF9E770B50D4D0D4C641BA410002620
:10179C00A64209D10B4D0C4C00F018F8641BA41098
:1017AC000026A64205D170BD55F8043B984701367A
:1017BC00EEE755F8043B98470136F2E7301800087D
:1017CC00301800083018000834180008F8B500BFAD
:1017DC00F8BC08BC9E467047F8B500BFF8BC08BC06
:0417EC009E4670475E
:1017F00000000000000000000102030406070809C1
:10180000A0860100400D0300801A060000350C0080
:1018100040420F0080841E0000093D0000127A0043
:101820000024F40000366E010048E801006CDC0280
:04183000B1010008FA
:041834008D0100081A
:0C18380000093D0010000000010000004D
:04000005080003F1FB
:00000001FF
